:10000000E1C100000C94DE230C94B3230C948823EC
:100010000C945D230C9432230C9407230C94DC2263
:100020000C94B12200C20000FEC10000FCC100001F
:10003000FAC10000F8C10000F6C10000F4C10000E0
:10004000F2C10000F0C10000EEC10000ECC10000F0
:100050000C94EB1EE8C10000E6C100000C9467227E
:10006000E2C100000C946D200C944320DCC1000020
:10007000DAC10000D8C10000D6C10000D4C1000020
:10008000D2C10000D0C10000CEC10000CCC1000030
:10009000CAC10000C8C10000C6C10000C4C1000040
:1000A000C2C10000C0C10000BEC10000BCC1000050
:1000B000BAC10000B8C10000B6C10000B4C1000060
:1000C000B2C10000B0C100000C948F09ACC10000A7
:1000D000AAC10000A8C10000A6C10000A4C1000080
:1000E000A2C10000E112E112EF12CE12D812D81212
:1000F000E812E812FD12CA12151315131513151381
:10010000DB12D220D520C420C820CC200C21D9203D
:10011000DD20E320E720EB20F120F520F9200C2161
:10012000FF2003210721832188218D219721A121EF
:100130001A22AB21B321BB21C521CF21D921E8212E
:10014000F2211A22FC21062210221C28122814282F
:10015000162818281E282028B52E8D2E952E9D2E67
:10016000A52EBD2EC52E00002100240027002A0048
:100170002D003000330001010000040107010A01D5
:100180000009121B242D363F48415A536C657E7777
:1001900019100B023D342F265158434A757C676E67
:1001A000323B2029161F040D7A7368615E574C4557
:1001B0002B2239300F061D14636A7178474E555C47
:1001C000646D767F4049525B2C253E3708011A1337
:1001D0007D746F6659504B42353C272E1118030A27
:1001E000565F444D727B60691E170C053A33282117
:1001F0004F465D546B627970070E151C232A313807
:100200004148535A656C777E09001B122D243F36F6
:1002100058514A437C756E671019020B343D262FE6
:10022000737A6168575E454C3B3229201F160D04D6
:100230006A6378714E475C55222B3039060F141DC6
:10024000252C373E0108131A6D647F7649405B52B6
:100250003C352E2718110A03747D666F5059424BA6
:10026000171E050C333A21285F564D447B72696096
:100270000E071C152A233831464F545D626B707986
:1002800000002200250028002B002E003100340041
:1002900002010000050108010B0100000A0B020920
:1002A0000C0D0E0807030401000000000000000010
:1002B000000000000000000000000000000000003E
:1002C00000000000000012111000000000000000FB
:1002D000000000000000000000000000000000001E
:1002E000000020002300260029002C002F003200EF
:1002F00000010000030106010901050505050705C8
:1003000008080808020202020A0A08080404040491
:1003100001010101010101010303030303030303BD
:10032000040707070C0C0C0C0C0C0C0C020202024C
:1003300006060606060606060B0B0B0B0B0B0B0B35
:1003400001021020200808102040102040800201E7
:1003500002010804020101020408102040808040CC
:1003600020100804020180040201804020100804CB
:100370000201080402010102040810204080010269
:100380000408102040804E414E494E495459494E70
:1003900046CDCCCC3D0AD7233C17B7D13877CC2BF0
:1003A000329595E6241FB14F0A000020410000C895
:1003B0004200401C4620BCBE4CCA1B0E5AAEC59D16
:1003C0007400ED3311241FBECFEFD1E2DEBFCDBFED
:1003D00000E00CBF12E0A0E0B2E0E4E5FAE700E0E4
:1003E0000BBF02C007900D92A23AB107D9F726E0E1
:1003F000A2EAB2E001C01D92AD3FB207E1F711E001
:10040000C2EED1E000E006C021970109802FFE0175
:100410000E949C34C13ED10780E00807A9F70E94E2
:10042000D52E0C94283DECCDBF92CF92DF92EF9267
:10043000FF920F931F93CF93DF93CDB7DEB7EA9769
:100440000FB6F894DEBF0FBECDBF1092AC02109273
:10045000AB02F090020261E08F2D0E94202161E04A
:100460008F2D0E94A32060E080911A020E9420211B
:100470008091010287FD03C062E00E9420210E945A
:10048000C31E83EF9CE19093AA028093A90210926D
:10049000A802FFB6F8948091A602811127C0EFE26E
:1004A000F3E08491E5E7F3E09491E82FF0E0EE0FBC
:1004B000FF1FEA59FE4FA591B491EC91E92321F475
:1004C00061E085E30E94A32061E085E30E94202192
:1004D0008CB580618CBD8CB580648CBD61E084E39B
:1004E0000E94202161E083E30E9420218091A602E6
:1004F0008F5F8093A602FFBEF090000261E08F2D17
:100500000E94202161E08F2D0E94A3200E94C31E23
:1005100061E070E080E090E00E94350C1FA218A618
:1005200019A61AA61092A7027E0127E2E20EF11C7C
:10053000A70164E278EE80E090E00E94CA1388236D
:1005400029F08091A702882371F024C081E0809374
:10055000A702A70164E278EE80E090E00E94CA134F
:100560008111EFCF39C08FA198A5A9A5BAA583782D
:100570009C01AD0120652FA338A749A75AA764E2C3
:1005800078EE80E090E00E943915882329F181E01F
:100590008093A702AE01415D5F4F60E070E180E0B3
:1005A00090E00E94CA138823B9F0AE014F5F5F4FFD
:1005B00064E278EE80E090E00E94CA1389819A811B
:1005C000AB81BC818F789C01AD01206564E278EE3F
:1005D00080E090E00E94AD15AE014F5F5F4F64E197
:1005E00070E180E090E00E94CA1389819A81AB811A
:1005F000BC81B7FD07C061E070E080E090E00E9440
:10060000350CEACFAE014F5F5F4F6CEB77E082E0D5
:1006100090E00E94CA13898180FF1AC022E533E16D
:10062000A9016CE870E180E090E00E9452160E94FF
:100630005316DC01CB019F70AA27BB27803A934059
:10064000A105B10550F162E070E080E090E028C0C3
:10065000C12CD12C61E070E080E090E00E94350C6C
:10066000AE014F5F5F4F6CE070E0CB010E94CA1398
:1006700089819A81AB81BC8150EDC51657E0D506C2
:1006800019F47BEFB72E64C06FEFC61AD60A8E3905
:10069000904DAD4AB041F1F6C1CF60E070E0CB01C2
:1006A0000E94FE1621E63FE242E55FEE6CE070E05C
:1006B000CB010E9452168CE890E1A0E0B0E08FAB35
:1006C00098AFA9AFBAAF86E396E2A3E5B2E08BABF1
:1006D0009CABADABBEABC12CD12C80E090E0DC017B
:1006E0004BA95CA96DA97EA9481759076A077B0722
:1006F000E1F062E070E080E090E00E94350C6FA9CC
:1007000078AD89AD9AADAE014F5F5F4F0E94CA13BD
:1007100089819A81AB81BC81EFEFCE1ADE0AF0EDC0
:10072000CF16F7E0DF06E1F6ACCF8BA99CA9ADA907
:10073000BEA986339642A345B24069F420E030E07A
:10074000A9016CE870E180E090E00E94521603C0BD
:100750000E94D71E6EC019821A821B821C82AE01B3
:100760004F5F5F4F68E074E180E090E00E945E14AC
:10077000B82E811115C089819A81AB81BC819C0101
:10078000AD01316029833A834B835C8368E074E177
:1007900080E090E00E94AD15B82E882309F483C153
:1007A000B110D6CFE4E8F4E0119244E0EE39F4075A
:1007B000D9F784E698E09093AC028093AB02609105
:1007C0001A02062E000C770B880B990B0E94CB2D7A
:1007D00083E698E090939904809398048FE99AE0D7
:1007E00090939104809390041FA618AA19AA1AAA9C
:1007F00088E0D7011D928A95E9F7FE0131966F01D5
:10080000D6011D926D01AE15BF05D1F7AE01415D58
:100810005F4F68E070E08CE090E00E945E14B82EBC
:10082000882381F0E4EFBE1609F45CC1BB2009F413
:1008300075C0E3EFBE1609F471C060E086E00E9467
:100840007A0D1BC18FA598A9A9A9BAA90097A105DE
:10085000B10509F447C1BC01CD01836008E010E097
:1008600020E030E0A6010E940316B82E8111DACFF5
:100870008BA59CA5ADA5BEA5AA27BB278FA798AB26
:10088000A9ABBAAB0097A105B10509F42BC1BC0116
:10089000CD01836006E210E020E030E0AE014F5F62
:1008A0005F4F0E940316B82E8111BCCF8F818F70CD
:1008B0002D8190E0FC01F22B9F018E81F0E18F9F52
:1008C000C00111249927822B932BAC0160E070E0CA
:1008D0004093AD025093AE026093AF027093B002AA
:1008E0002A852F70488530E0B901742BAB0139851A
:1008F00070E1379F900111243327242B352B00976B
:1009000009F4F0C02115310509F4ECC02335334159
:1009100008F055C18235934108F451C18091B1026C
:10092000811114C0E4EFF3E0119224E0ED36F207F8
:10093000D9F780E59FE0909393048093920481E03F
:100940008093B1021092A5021092A40288E5EFE90B
:10095000F4E0DF011D928A95E9F784E694E2909332
:10096000EF038093EE0389EF97E19093A3028093C6
:10097000A20281E090E0909308068093070610920F
:10098000B4051092B30510929D0510929E05109229
:100990009F051092A0051092A1051092A205109239
:1009A000A3051092A4051092A5051092A605109219
:1009B000A7051092A8059093AA058093A905109207
:1009C000AB051092AC051092AD051092AE051092D9
:1009D000B0051092AF058EE0E9EFF5E0DF011D9262
:1009E0008A95E9F78091AD029091AE02A091AF0295
:1009F000B091B00280359341A105B105B8F08FEFF9
:100A000093E0A0E0B0E089839A83AB83BC83C12CE0
:100A1000D12CE12CF12C00E010E024E030E0AE011C
:100A20004F5F5F4F65E085E00E94CB0D61E084E0A1
:100A30000E947A0D61E085E00E947A0D61E086E017
:100A40000E947A0D84E00E94F92985E00E94F9292C
:100A500086E00E94F92961E081E00E947A0D61E060
:100A600082E00E947A0D61E083E00E947A0D81E0CD
:100A70000E94F92982E00E94F92983E00E94F92965
:100A80008B2DBB0C990BEA960FB6F894DEBF0FBE08
:100A9000CDBFDF91CF911F910F91FF90EF90DF902D
:100AA000CF90BF900895AE014F5F5F4F60E07AE155
:100AB00080E090E00E945E14B82E811171CE898191
:100AC0009A81AB81BC819C01AD01416029833A834D
:100AD0004B835C8360E07AE180E090E00E94AD159A
:100AE000B82E5ECE1FA218A619A61AA6A7016CEAF8
:100AF00077E082E090E00E945E14B82E8FA198A566
:100B0000A9A5BAA5833C914CAD45B74D41F4A701C9
:100B100068E470E180E090E00E945E14B82E8FA13E
:100B200098A5A9A5BAA5AD016627772758879A0188
:100B300054E0369527955A95E1F72F7029874F7025
:100B40004A879D839C0164E0369527956A95E1F775
:100B50002F702E838F708F830E9453168F818F701A
:100B60002D8190E0922B2E8140E1249F9001112451
:100B70003327AC01422B532BCA01A0E0B0E0809395
:100B8000AD029093AE02A093AF02B093B0028A85FB
:100B90008F70288590E0BC01722B9B01998570E1D4
:100BA000979FC00111249927822B932B8335934162
:100BB00010F093EFB92E4235534108F037CE83EF52
:100BC000B82EACCECF92DF92EF92FF920F931F938D
:100BD000CF93DF93CDB7DEB728970FB6F894DEBF7B
:100BE0000FBECDBF87FD2EC04115510559F19BE0C9
:100BF0008902F0011124EC50FC4F9085913011F5E1
:100C0000DA016E838D838D919D910D90BC91A02D05
:100C100089839A83AB83BC838481958198878F83F2
:100C2000C12CD12CE12CF12C00E010E028E030E0C8
:100C3000AE014F5F5F4F6FE482E0ADD7882319F0BC
:100C400087EF01C08AEF28960FB6F894DEBF0FBE7B
:100C5000CDBFDF91CF911F910F91FF90EF90DF906B
:100C6000CF9008950F931F93CF93DF9300D000D0C0
:100C7000CDB7DEB78C01B9D6CE010196B6D6DE016E
:100C80001796F801C80106962E912193E817F907E7
:100C9000D9F7C80126960FB6F894DEBF0FBECDBFB8
:100CA000DF91CF911F910F910895CF92DF92EF9234
:100CB000FF92CF93DF936C01990FEE08FF08F7FEC8
:100CC00016C06DE28EEF94E00E94F91FEC014427FC
:100CD0005527BA014C195D096E097F092AE08EEF8C
:100CE00094E00E94561F7C01EC0EFD1E08C02AE015
:100CF000B701A6018EEF94E00E94561F7C0164E7C5
:100D000072E08EEF94E00E943F1F8E0D9F1DDF91D9
:100D1000CF91FF90EF90DF90CF9008952F923F9268
:100D20004F925F926F927F928F929F92AF92BF92FB
:100D3000CF92DF92EF92FF920F931F93CF93DF93A7
:100D4000CDB7DEB766970FB6F894DEBF0FBECDBF46
:100D50009E8B8D8B8A013901072E000C880B990B15
:100D60000E94A43B4B015C01B801110F880B990B49
:100D70000E94A43B23EC35EF48EA5EE30E94033C6B
:100D80006B017C0121EE3AE744E15FE3C501B40168
:100D90000E94033CA70196010E94A5341B012C016F
:100DA00021EE3AE744E15FEBC501B4010E94033C48
:100DB000A70196010E94A53469877A878B879C8753
:100DC00020E030E0A901C701B6010E94A5346D877B
:100DD0007E878F87988B20E030E0A901C201B101A6
:100DE0000E94A23552014101181624F0B7FAB094BE
:100DF000B7F8B09420E030E0A90169857A858B8549
:100E00009C850E94A235181634F089859A85AB8599
:100E1000BC85B05804C089859A85AB85BC8589831B
:100E20009A83AB83BC8320E030E0A9016D857E8589
:100E30008F8598890E94A235181634F08D859E857D
:100E4000AF85B889B05804C08D859E85AF85B889B7
:100E50008D839E83AF83B8872D813E814F815885D6
:100E6000C501B4010E94A235181654F429813A81B3
:100E70004B815C81C501B4010E94A23518168CF02B
:100E80002D813E814F81588569817A818B819C813A
:100E90000E94A235181654F0DD80EE80CF80F884D1
:100EA00009C0D82CE92CCA2CFB2C04C0D980EA80BC
:100EB000CB80FC8020E030E0A9016D2D7E2D8C2DB3
:100EC0009F2D0E949E3B882309F12D2D3E2D4C2DF8
:100ED0005F2D60E070E088E493E40E9409356B01C7
:100EE0007C01B301770C880B990B0E94A43B20E096
:100EF00030E048E453E40E9409359B01AC01C7018E
:100F0000B6010E94033C6B017C0103C0C12CD12CB3
:100F10007601A7019601C501B4010E94033C0E941D
:100F20007135698B7A8B8B8B9C8BA70196016981BC
:100F30007A818B819C810E94033C0E9471354B0118
:100F40005C01A70196016D817E818F8198850E9449
:100F5000033C0E9471356B017C01AD89BE892D92E5
:100F60003D924D925C92139789859A85AB85BC859D
:100F7000ED89FE8984839583A683B7838D859E85BD
:100F8000AF85B88980879187A287B38720E030E05A
:100F9000A901C201B1010E94A23518163CF4698969
:100FA0007A8982E00E945C2160E016C020E030E097
:100FB000A901C201B1010E949E3B87FF08C0698957
:100FC0007A8988E00E945C2160E082E006C061E0EE
:100FD00082E00E94A32061E088E00E94A320AD8906
:100FE000BE8914964D905D906D907C90179720E08F
:100FF00030E0A901C301B2010E94A235181634F4F1
:10100000B40183E00E945C2160E015C020E030E084
:10101000A901C301B2010E949E3B87FF07C0B40132
:1010200087E00E945C2160E083E006C061E083E02D
:101030000E94A32061E087E00E94A320ED89FE8941
:1010400080849184A284B38420E030E0A901C501AA
:10105000B4010E94A235181634F4B60185E00E944E
:101060005C2160E015C020E030E0A901C501B401B9
:101070000E949E3B87FF07C0B60186E00E945C216C
:1010800060E085E006C061E085E00E94A32061E0A9
:1010900086E066960FB6F894DEBF0FBECDBFDF9137
:1010A000CF911F910F91FF90EF90DF90CF90BF9065
:1010B000AF909F908F907F906F905F904F903F90F8
:1010C0002F900C94A3200895E4E8F4E083818F5FCF
:1010D00083830895873080F4843081F0853081F0F7
:1010E000863081F0882381F0813081F0823081F078
:1010F000833081F08EEF08958FEF08958FE008958B
:1011000080E1089582E1089583E0089584E00895E0
:1011100085E0089586E00895CF93DF9300D01F9275
:10112000CDB7DEB780918504882329F080918504AE
:1011300081508093850480918504811154C08091F1
:101140008404882309F44FC0AE014F5F5F4F60E114
:1011500070E080E090E00E945E14811145C08981BA
:1011600080FDF2CFAE014F5F5F4F61E070E080E045
:1011700090E00E945E14811137C089819A81AB8111
:10118000BC8181FD0CC0AE014F5F5F4F6BE070E032
:1011900080E090E00E945E14882389F025C09C01C5
:1011A000AD012D7F29833A834B835C8361E070E03E
:1011B00080E090E00E94AD15882329F315C0498195
:1011C0005A816B817C8140FF0FC09A01AB012E7F59
:1011D00029833A834B835C836BE070E080E090E08E
:1011E0000E94AD1501C080E00F900F900F900F90FE
:1011F000DF91CF910895FB016191DC016D93CD01E9
:101200002150310941095109B9F70895FC019F01A5
:10121000281B390B41914111FACFC9010895AF92B2
:10122000BF92CF92DF92EF92FF920F931F93CF93D3
:10123000DF931F92CDB7DEB78C017B016A01198263
:10124000892B51F0672B09F05BC0AA24A394B12C21
:10125000CE0101967C0106C0A12CBB24B3948E0163
:101260000F5F1F4F20919B0590919C058091B202CA
:10127000882379F08FB7F8943091B202313039F485
:101280003DB33093B3023DB33DBB8FBF02C08093EB
:10129000B3022CBD9DBD60E0809100020E94A3209E
:1012A000C114D104B9F0F80180818EBD00000DB4E5
:1012B00007FEFDCF8EB5F7018083F1E0CF1AD1088C
:1012C000A11003C08FEFE81AF80AB110E9CF0F5F41
:1012D0001F4FE6CF61E0809100020E94A320809121
:1012E000B202882379F09FB7F8942091B2028091DE
:1012F000B302213019F48DBB9FBF04C08FBF02C061
:101300008AEF01C080E00F90DF91CF911F910F9184
:10131000FF90EF90DF90CF90BF90AF9008951F9215
:101320000F920FB60F9211240BB60F922F933F938B
:101330004F935F936F937F938F939F93AF93BF93DD
:10134000CF93EF93FF93E091F904F091FA04C081F9
:101350008091FB04C82380910302C81749F0C11192
:1013600007C0E091FC04F091FD04309709F0199555
:10137000C0930302FF91EF91CF91BF91AF919F91E5
:101380008F917F916F915F914F913F912F910F902E
:101390000BBE0F900FBE0F901F90189560911A0210
:1013A000062E000C770B880B990B0C94CB2DCF934A
:1013B000DF9300D01F92CDB7DEB710928604EEDF28
:1013C000AE014F5F5F4F60E770E180E090E00E9408
:1013D0005E14811111C089819A81AB81BC819C010D
:1013E000AD01226029833A834B835C8360E770E11F
:1013F00080E090E00E94AD150F900F900F900F903D
:10140000DF91CF9108954F925F926F927F928F926A
:101410009F92AF92BF92CF92DF92EF92FF920F9383
:101420001F93CF93C02F611571058105910531F090
:101430004115510519F02115310519F4C1115EC08E
:101440006DC0890120E030E0C0908C04D0908D0404
:10145000E0908E04F0908F04C016D106E206F306E9
:1014600008F45CC0C0908804D0908904E0908A049D
:10147000F0908B046C157D058E059F0508F44EC019
:101480006B017C01C00ED11EE21EF31E8090880409
:1014900090908904A0908A04B0908B0440908C04B2
:1014A00050908D0460908E0470908F04840C951C75
:1014B000A61CB71C8C149D04AE04BF0478F10E94D6
:1014C000031681112CC040918804509189046091C9
:1014D0008A0470918B0400918C0410918D042091EA
:1014E0008E0430918F04400F511F621F731F4C15E3
:1014F0005D056E057F0511F0CC2389F0CF911F911A
:101500000F91FF90EF90DF90CF90BF90AF909F90A2
:101510008F907F906F905F904F9049CF84EFCF91E5
:101520001F910F91FF90EF90DF90CF90BF90AF9001
:101530009F908F907F906F905F904F900895BF9293
:10154000CF92DF92EF92FF920F931F93CF93DF938F
:10155000CDB7DEB7C456D1090FB6F894DEBF0FBEC3
:10156000CDBF69017A018C32B9F400E024E030E0AB
:10157000AE014F5F5F4FC701B60145DF811164C106
:10158000E091A902F091AA02309709F45DC1BE0171
:101590006F5F7F4F8CE257C18B31B9F400E028E0D8
:1015A00030E0AE014F5F5F4FC701B6012CDF811104
:1015B0004BC1E091A902F091AA02309709F444C10D
:1015C000BE016F5F7F4F8BE13EC18630B9F401E011
:1015D00020E330E0AE014F5F5F4FC701B60113DF7C
:1015E000811132C1E091A902F091AA02309709F469
:1015F0002BC1BE016F5F7F4F86E025C18E3009F49D
:1016000023C1823339F58091AD029091AE02A09151
:10161000AF02B091B00280359341A105B10518F435
:1016200020E130E002C024E130E000E0AE014F5F95
:101630005F4FC701B601E7DE811106C1E091A90243
:10164000F091AA02309709F4FFC0BE016F5F7F4F8F
:1016500082E3F9C08F3201F5FE013196BE2E1F2FB5
:10166000CE018B599F4F1192E817F907E1F700E07F
:1016700024E630E04B2D512FC701B601C4DE8111A5
:10168000E3C0E091A902F091AA02309709F4DCC00E
:101690006B2D712F8FE2D7C08433B1F400E024E0CA
:1016A00030E0AE014F5F5F4FC701B601ACDE811184
:1016B000CBC0E091A902F091AA02309709F4C4C00E
:1016C00060E070E084E3BFC08131E1F41092A802D1
:1016D00000E024E030E0AE014F5F5F4FC701B6018C
:1016E00092DE8111B1C089818093B402E091A90298
:1016F000F091AA02309709F4A7C0BE016F5F7F4F37
:1017000081E1A1C08331B9F400E02CE230E0AE0108
:101710004F5F5F4FC701B60176DE811195C0E09142
:10172000A902F091AA02309709F48EC0BE016F5F42
:101730007F4F83E188C08430B9F400E024E030E0DA
:10174000AE014F5F5F4FC701B6015DDE81117CC006
:10175000E091A902F091AA02309709F475C0BE0188
:101760006F5F7F4F84E06FC08536B9F400E024E0FE
:1017700030E0AE014F5F5F4FC701B60144DE81111B
:1017800063C0E091A902F091AA02309709F45CC00D
:10179000BE016F5F7F4F85E656C08930B9F401E026
:1017A00024E630E0AE014F5F5F4FC701B6012BDE8C
:1017B00081114AC0E091A902F091AA02309709F480
:1017C00043C0BE016F5F7F4F89E03DC08A32B1F4F4
:1017D00001E024E030E0AE014F5F5F4FC701B6018A
:1017E00012DE811131C0E091A902F091AA02309776
:1017F00059F1BE016F5F7F4F8AE225C0803221F52B
:1018000000E026E030E0AE014F5F5F4FC701B60158
:10181000FADD811119C02B813C8149815A81C701B0
:10182000B6016A5F7F4F8F4F9F4F01E0ECDD811162
:101830000BC0E091A902F091AA02309729F0BE01F5
:101840006F5F7F4F80E21995CC59DF4F0FB6F89448
:10185000DEBF0FBECDBFDF91CF911F910F91FF90E3
:10186000EF90DF90CF90BF900895CF92DF92EF92EC
:10187000FF926B017C01C114D104E104F10461F019
:1018800061E070E080E090E00E94232281E0C81ACD
:10189000D108E108F108EFCFFF90EF90DF90CF90F3
:1018A0000895AF92CF92DF92EF92FF920F931F9322
:1018B000CF93DF93CDB7DEB728970FB6F894DEBF8E
:1018C0000FBECDBF8091860481117EC080918504BA
:1018D000882331F0809185048F5F8093850474C0E4
:1018E000809184048823B1F31D821E821F82188692
:1018F00019821A821B821C82AE014B5F5F4F6BE024
:1019000070E080E090E0DAD781115AC08D819E812D
:10191000AF81B88580FF0BC0AE014B5F5F4F61E0C8
:1019200070E080E090E0CAD7882369F049C09C014C
:10193000AD0121606BE070E080E090E00E94AD15A9
:10194000882351F33DC08D819E81AF81B88581FF91
:1019500003C000E010E00CC09C01AD01226061E01A
:1019600070E080E090E00E94AD15882391F328C0DC
:10197000AE014F5F5F4F6FE070E080E090E09ED778
:1019800081111EC0898182FD0CC062E070E080E0A0
:1019900090E06BDF0F5F1F4F0530110549F78CEFAB
:1019A00014C0A12CC12CD12C760100E010E09801CC
:1019B00040E050E0BA018FECCDD58FEC91D58ACFC5
:1019C000882309F487CF01C080E028960FB6F894E9
:1019D000DEBF0FBECDBFDF91CF911F910F91FF9062
:1019E000EF90DF90CF90AF900895CF92DF92EF927B
:1019F000FF920F931F93CF93DF93CDB7DEB762971C
:101A00000FB6F894DEBF0FBECDBF7C014ADF182FA2
:101A1000811160C0CE0101966C0188E0F60111923F
:101A20008A95E9F7AE01415F5F4F68E070E08CE0B6
:101A300090E044D7182F811149C08F859889A989D2
:101A4000BA890097A105B105B1F0BC01CD01836051
:101A500008E010E020E030E0A6010E940316182FF5
:101A6000811134C089819A81AB81BC818F87988B29
:101A7000A98BBA8B0BC0AE01415F5F4F6CE974E17B
:101A800080E090E01BD7182F811120C08F859889A6
:101A9000A989BA89AA27BB278F87988BA98BBA8B6C
:101AA000BC01CD01836006E010E020E030E0AE0133
:101AB000475F5F4F0E940316182F26E030E040E09A
:101AC00050E0BE01675F7F4FC70195DB111102C077
:101AD00023DB182F812F62960FB6F894DEBF0FBE5E
:101AE000CDBFDF91CF911F910F91FF90EF90DF90CD
:101AF000CF9008950F931F93CF93DF9300D01F9241
:101B0000CDB7DEB7182F062FCCDE81113BC0812F59
:101B1000E1DA182F87FD35C0AE014F5F5F4F60E0FF
:101B200071E082E090E0CAD681112BC089819A8150
:101B3000AB81BC8141E050E060E070E004C0440F44
:101B4000551F661F771F1A95D2F7002329F0842BA3
:101B5000952BA62BB72B08C0409550956095709596
:101B600084239523A623B72389839A83AB83BC83DD
:101B700029813A814B815C8160E071E082E090E0F4
:101B8000ECD7CADA0F900F900F900F90DF91CF91A2
:101B90001F910F9108952F923F924F925F926F92F3
:101BA0007F928F929F92AF92BF92CF92DF92EF92ED
:101BB000FF920F931F93CF93DF93CDB7DEB7639759
:101BC0000FB6F894DEBF0FBECDBF582E3A014901C3
:101BD0005801862F8F778E875D8688E090E0988BFE
:101BE0008F878F859889012B29F08E0D9F1D8C0D75
:101BF0009D1D02C0820F931F988B8F876B8B51DEC8
:101C00006B89811134C11D821E821F8218861A8A37
:101C1000198A19861A861B861C8689859A85AB8542
:101C2000BC85852989879A87AB87BC8789859A85F2
:101C3000AB85BC85962B89879A87AB87BC872F8518
:101C4000388949855A856B857C85C901A0E0B0E05B
:101C5000DC0199278827842B952BA62BB72B898706
:101C60009A87AB87BC8729853A854B855C856CE86C
:101C700070E180E090E071D78111F0C019861A867A
:101C80001B861C8689859A85AB85BC858260898781
:101C90009A87AB87BC8729853A854B855C8568E741
:101CA00070E180E090E059D78111D8C01D821E827A
:101CB0001F8218861A8A198A89899A89883E9340D0
:101CC00050F4AE01475F5F4F68E770E180E090E05D
:101CD000F5D5882349F08D819E81AF81B885892B08
:101CE0008A2B8B2B41F5B7C089899A89843F914013
:101CF00038F089899A8961E070E080E090E0B5DD94
:101D000089859A85AB85BC8581FD0FC0AE014B5F8F
:101D10005F4F60E074E085E190E0D0D58823D9F290
:101D20001D821E821F82188699C089899A89019610
:101D30009A8B898BC1CF8D819E81AF81B885898334
:101D40009A83AB83BC838F859889988B8F876981B1
:101D50007A818B819C8108E010E020E030E0AE01C8
:101D6000435F5F4F01D7811179C089819A81AB812F
:101D7000BC810896A11DB11D89839A83AB83BC8366
:101D800061147104C9F01401412C512C69817A81CC
:101D90008B819C8192018101A301E6D681115EC0F5
:101DA00089819A81AB81BC81820D931DA41DB51DD3
:101DB00089839A83AB83BC83A114B10439F18981EF
:101DC0009A81AB81BC81C818D9088C0D9D1DA11DBD
:101DD000B11D89839A83AB83BC832701612C712C4D
:101DE00069817A818B819C8193018201A501BCD696
:101DF000811134C089819A81AB81BC81840D951D8C
:101E0000A61DB71D89839A83AB83BC838D819E8178
:101E1000AF81B88522E0880F991FAA1FBB1F2A95A2
:101E2000D1F789879A87AB87BC8789859A85AB85E7
:101E3000BC85826089879A87AB87BC8729853A856C
:101E40004B855C856CE670E180E090E086D6811180
:101E500005C062D90CC060D98DEF09C0909185048E
:101E6000992329F09091850491509093850463966D
:101E70000FB6F894DEBF0FBECDBFDF91CF911F919B
:101E80000F91FF90EF90DF90CF90BF90AF909F9019
:101E90008F907F906F905F904F903F902F9008951C
:101EA0004F925F926F927F928F929F92AF92BF926A
:101EB000CF92DF92EF92FF920F931F93CF93DF9316
:101EC000CDB7DEB7C455D1090FB6F894DEBF0FBE4B
:101ED000CDBF3B0149015A01813411F08435F9F439
:101EE00000E024E030E0AE014F5F5F4FC501B40178
:101EF0008ADA81116FC28A8126968FAF26978091E8
:101F0000EE039091EF03892B09F464C2E091EE0394
:101F1000F091EF03AE014B5B5F4F61E020C0823474
:101F200009F500E024E030E0AE014F5F5F4FC501EE
:101F3000B40169DA81114EC28A8126968FAF269745
:101F40008091EE039091EF03892B09F443C2E09155
:101F5000EE03F091EF03AE014B5B5F4F62E08981CE
:101F6000199538C2833409F080C000E02CE030E0DD
:101F7000AE014B5B5F4FC501B40145DA81112AC246
:101F80002F968FAD2F9787FD48C0482F082E000C45
:101F9000550B2E962FAD2E973BE02303F001112415
:101FA000EC50FC4F9185349FF001359FF00D1124CA
:101FB000EC50FC4F918791E0908761962EAD3FAD3C
:101FC000619728503109378326832091A4023091EC
:101FD000A5022F5F3F4F3093A5022093A4022091CA
:101FE000A4023091A502232B51F42091A402309138
:101FF000A5022F5F3F4F3093A5022093A4022091AA
:10200000A4023091A5029BE0949FF001959FF00DF2
:102010001124EC50FC4F35832483898382E090E0C7
:102020009B838A8329968EAD9FAD29979D838C8350
:102030002D968CAD9DADAEADBFAD2D978E839F839C
:10204000A887B9878091EE039091EF03892B09F45B
:10205000C1C1E091EE03F091EF03AE014F5F5F4F1E
:1020600064E02E968FAD2E977BCF843411F08B34A5
:1020700089F500E024E030E0AE014F5F5F4FC5011D
:10208000B401C1D98111A6C1898126968FAF269747
:102090009A8127969FAF279791110CC02B813C8185
:1020A000285031099BE08902F0011124EC50FC4FCB
:1020B000378326832091EE033091EF03232B09F41D
:1020C00089C1E091EE03F091EF03AE014B5B5F4FEE
:1020D00065E046CF8A3401F500E024E430E0AE014B
:1020E0004F5F5F4FC501B4018ED9811173C18091DB
:1020F000A2029091A302892B09F46CC1E091A20283
:10210000F091A30225964CAD5DAD6EAD7FAD2597E8
:10211000CE01019619955EC1863429F0883431F0DC
:102120008D3409F0F9C096E0C92E02C089E0C82EAE
:1021300000E020E130E0AE014B5B5F4FC501B40130
:1021400062D9811147C16296DFAC629765962EAD68
:102150003FAD65974D2C0D2C000C5508ED2DFBE087
:10216000EF02800111240C501C4FF80112862F96AB
:10217000EEACFFAC2F9761964EAD5FAD619729969F
:102180008EAD9FAD29979A8789872D968CAD9DAD91
:10219000AEADBFAD2D978B879C87AD87BE87848101
:1021A00095812817390709F0B0C01E141F040CF0E0
:1021B00097C0E614F7040CF093C0E114F10409F49D
:1021C00009C180819181892B09F404C182819381A5
:1021D000892B09F4FFC07084F1E07F12FBC0840EEC
:1021E000951EA11CB11C8092F0039092F103A09265
:1021F000F203B092F30326E130E040E050E0BE018C
:102200006F5F7F4F8EE694E00E94FB08F0927304AC
:10221000E0927204F801828193819701281B390BA7
:10222000C9011816190654F4E280F38070929E04D6
:10223000D0926D04C092ED0300E001C001E02BE0FC
:10224000249DC001259D900D1124FC01EC50FC4FF4
:102250005F01408151816091F0037091F1038091A1
:10226000F2039091F3039701CED88111B3C0F50129
:102270008081918190936F0480936E04F092710439
:10228000E092700480917204909173048E199F09FA
:1022900090937304809372048091EE039091EF0306
:1022A000892B49F0E091EE03F091EF034EE654E004
:1022B0006C2D8D2D19958091F0039091F103A091D3
:1022C000F203B091F3038E0D9F1DA11DB11D8093EC
:1022D000F0039093F103A093F203B093F3037AC059
:1022E000FC82EB821A8219828091EE039091EF03B7
:1022F000892B09F46FC0E091EE03F091EF03AE017A
:102300004F5F5F4F6C2D8D2D2BCEF1E16F16710459
:1023100008F460C04CD85EC0853421F0873421F0C9
:102320008C3489F517E001C018E000E028E030E0C7
:10233000AE014F5F5F4FC501B40165D881114AC03E
:1023400089814D815E812B813C8127963FAF2EAFE5
:1023500027972BE08202F0011124EC50FC4F2481DE
:10236000358142175307B1F52091EE033091EF0309
:10237000232B81F1E091EE03F091EF03AE014B5B73
:102380005F4F612FEDCD823529F501E024E130E08A
:10239000AE014F5F5F4FC501B40135D881111AC03E
:1023A0008D819E819093BA028093B9028091B90287
:1023B0009091BA02892B71F0E091B902F091BA02C2
:1023C00029853A854B855C8569817A818B819C81E1
:1023D00009891995CC5ADF4F0FB6F894DEBF0FBEAE
:1023E000CDBFDF91CF911F910F91FF90EF90DF90C4
:1023F000CF90BF90AF909F908F907F906F905F90A5
:102400004F900895AB01BC0180E090E00C940F095F
:102410007F928F929F92AF92BF92CF92DF92EF9274
:10242000FF920F931F93CF93DF9300D0CDB7DEB70A
:102430004C018B01742EA12CB12C013080E21807C5
:1024400010F4680103C0C12C90E2D92E8AE0E82E76
:10245000F12C61E070E0CE010396D4DF882311F007
:1024600080E028C09B8192959F709F3029F081E089
:10247000E81AF10870F7F4CFEF2891F3B601C40120
:102480008A0D9B1DBFDF8111EBCF772039F0AC0C9B
:10249000BD1C0C191D0989F681E00CC08091A702B2
:1024A0008111F5CF62E070E0CE010196ABDF8823A9
:1024B00071F3D6CF0F900F900F90DF91CF911F91B6
:1024C0000F91FF90EF90DF90CF90BF90AF909F90D3
:1024D0008F907F900895AB0160E070E00C940F093D
:1024E0000F931F93CF93DF931F92CDB7DEB7082FC3
:1024F0008F3C31F08BE3800F823010F01BE00EC078
:1025000061E070E0CE0101967DDF8823B9F380E0C1
:102510001BC08981801751F0115041F061E070E0DB
:10252000CE0101966FDF8823A1F3F1CF1BE061E0BC
:1025300070E0CE01019666DF8111E9CF89818823A1
:1025400011F01150A1F781E00F90DF91CF911F9111
:102550000F910895AF92CF92DF92EF92FF920F9377
:102560001F93CF93DF93CDB7DEB729970FB6F894BB
:10257000DEBF0FBECDBF898390E0FC01E15CF109B5
:10258000EF30F10508F051C08827EE58FF4F8F4F0C
:102590000C949C346A835B834C8311C0BB27A72FA8
:1025A000962F852FA11080688A834B831C8207C0D9
:1025B0001A821B82FBCF8FEF8A838B838C8365E02B
:1025C00036C06A835B834C83DD82CE8267E02FC096
:1025D0006A835B834C83ED82DE82CF820CC0BB2793
:1025E000A72F962F852FA11080688A834B833C8369
:1025F0002D831E830F8368E01AC06A835B834C833C
:102600003D832E831F83088769E011C0A1E0B0E0FD
:10261000AC0FBD1FA80FB91FEE0FEC9370E0CE01F9
:10262000019659DF91E0882309F190E01FC0809165
:10263000A702811119C0862F90E001978C01092E05
:10264000000C220B330BDE011196EFE7015011094C
:1026500021093109D8F24D91F0E0EE0FFF1FE42778
:10266000E058FE4FE491F2CF6150D8CF892F2996E0
:102670000FB6F894DEBF0FBECDBFDF91CF911F9193
:102680000F91FF90EF90DF90CF90AF9008952F9231
:102690003F924F925F926F927F928F929F92AF92F2
:1026A000BF92CF92DF92EF92FF920F931F93CF933F
:1026B000DF9300D01F92CDB7DEB71B012C013A018A
:1026C00049018AE08B831C82E1E08E16910429F493
:1026D000F1E0FC8382E0882E912C6401E12CF12C46
:1026E000A12C00E010E09801B201A10188EC32DFDA
:1026F000B82E81E0B81219C088ECF2DEB82EE1E005
:102700008E1313C0FC8140E0B401FF2341F0CE01E1
:1027100001967EDEB82E8981F301808303C0C30158
:1027200077DEB82EF1E0BF16E9F061E070E080E0FE
:1027300090E09BD8A12CC12CD12C760100E010E0B8
:10274000980140E050E0BA018FEC04DF8FECC8DE66
:1027500061E070E080E090E088D88B8181508B83CD
:102760008111B2CF8B2D0F900F900F900F90DF91B2
:10277000CF911F910F91FF90EF90DF90CF90BF907E
:10278000AF909F908F907F906F905F904F903F9011
:102790002F9008952F923F924F925F926F927F9267
:1027A0008F929F92AF92BF92CF92DF92EF92FF9261
:1027B0000F931F93CF93DF9300D01F921F92CDB73B
:1027C000DEB71B012C014A013AE0732E8FEF281669
:1027D00031044104510421F018F0612C9AEC03C03B
:1027E0006624639494ECA62C24E0C22ED12CE12C18
:1027F000F12C00E010E09801B201A101892F9D8326
:10280000A9DEB82E9D81E1E08E1323C0892F68DEFA
:10281000B82EF1E08F131DC0462D64E070E0CE01AC
:102820000196F6DDB82E81E0B81213C08A814B8183
:1028300050E060E070E0BA0155274427582B8981A9
:10284000482B8C81782BF4014083518362837383FE
:102850001CC061E070E080E090E007D8A12CC12CA2
:10286000D12C760100E010E0980140E050E0BA0180
:102870008FEC70DE8FEC34DE61E070E080E090E0A1
:102880000E94350C7A947110A1CF8B2D0F900F9070
:102890000F900F900F90DF91CF911F910F91FF90AC
:1028A000EF90DF90CF90BF90AF909F908F907F90F0
:1028B0006F905F904F903F902F9008956BDF813025
:1028C00011F08AEF089580E008952F923F924F9281
:1028D0005F926F927F928F929F92AF92BF92CF92B0
:1028E000DF92EF92FF920F931F93CF93DF9300D06D
:1028F0001F921F92CDB7DEB71B012C013A0149018F
:102900008AE08D8381E08816910419F482E0882E94
:10291000912C6401E12CF12CA12C00E010E0980135
:10292000B201A10187EC16DEB82E81E0B81269C0B1
:1029300087ECD6DDB82E81E0B81263C01A82198206
:102940007401A12CB12C870181E0E81680E2F80621
:1029500010F000E010E2A114B10431F481E0E816B7
:1029600080E2F80640F405C081E0E81680E2F8064F
:1029700020F483E003C081E001C082E0806F8C839B
:1029800061E070E0CE010496A6DD811139C0B80186
:10299000C3018A0D9B1D9FDD811132C08091A7026A
:1029A000882331F0A00EB11EE01AF10A61F608C0CA
:1029B00062E070E0CE0101968EDD882399F320C09D
:1029C0008091A702882311F083E001C082E0A82E45
:1029D000B12CB501CE01019615DD811111C0FE01AA
:1029E000EA0DFB1D808181110BC0EFEFFFEFEC0FB3
:1029F000FD1FEA0DFB1DBB24B3948081833C01F1D4
:102A0000B12C61E070E080E090E00E94350CA12CD8
:102A1000C12CD12C760100E010E0980140E050E09C
:102A2000BA018FEC97DD8FEC5BDD61E070E080E058
:102A300090E00E94350C8D8181508D83811162CF91
:102A40008B2D0F900F900F900F900F90DF91CF91E3
:102A50001F910F91FF90EF90DF90CF90BF90AF90BC
:102A60009F908F907F906F905F904F903F902F90AE
:102A700008954F925F926F927F929F92AF92BF9212
:102A8000CF92DF92EF92FF920F931F93CF93DF933A
:102A900000D01F921F92CDB7DEB72B013C012983D6
:102AA0003A834B835C839AE0B92E81E34816510444
:102AB0006104710418F0A12C99EC03C0AA24A3941A
:102AC00093EC84E0C82ED12CE12CF12C09811A81E1
:102AD0002B813C81B301A201892F9D833BDD982E80
:102AE0009D8181E0981206C0892FFADC982E81E042
:102AF0009816E9F061E070E080E090E00E94350C0B
:102B0000A12CC12CD12C760100E010E0980140E00E
:102B100050E0BA018FEC1EDD8FECE2DC61E070E08A
:102B200080E090E00E94350CBA94B110BECF892DA0
:102B30000F900F900F900F900F90DF91CF911F91FA
:102B40000F91FF90EF90DF90CF90BF90AF909F904C
:102B50007F906F905F904F9008958BDF813011F0E0
:102B60008AEF089580E008954F925F926F927F926E
:102B70008F929F92AF92BF92CF92DF92EF92FF928D
:102B80000F931F93CF93DF932B013C01EA01480180
:102B90005901C12CD12C7601C701B601640D751DF8
:102BA000861D971DAE014C0D5D1D29EF8216910407
:102BB000A104B10430F4940188DE813091F480E006
:102BC00011C028EF30E081DE813059F488EF881A97
:102BD0009108A108B10828EFC20ED11CE11CF11C1C
:102BE000DBCF8AEFDF91CF911F910F91FF90EF9094
:102BF000DF90CF90BF90AF909F908F907F906F901D
:102C00005F904F9008954F925F926F927F928F9254
:102C10009F92AF92BF92CF92DF92EF92FF920F936B
:102C20001F93CF93DF932B013C01EA014801590127
:102C3000C12CD12C7601C701B601640D751D861D0E
:102C4000971DAE014C0D5D1D29EF82169104A10464
:102C5000B10430F494011BDD813091F480E011C0A7
:102C600028EF30E014DD813059F488EF881A91089C
:102C7000A108B10828EFC20ED11CE11CF11CDBCF6A
:102C80008AEFDF91CF911F910F91FF90EF90DF902E
:102C9000CF90BF90AF909F908F907F906F905F90FC
:102CA0004F9008955ACFCF92DF92EF92FF92CF9339
:102CB000DF9300D01F92CDB7DEB7C090B502D090A1
:102CC000B602E090B702F090B802C114D104E1045A
:102CD000F10409F07EC045EB52E060E070E180E075
:102CE00090E0ECDD882349F01092B5021092B60214
:102CF0001092B7021092B80274C0AE014F5F5F4FDE
:102D000064EF73E180E090E0D9DD8111EDCF809137
:102D1000B5029091B602A091B702B091B802803A84
:102D200022E0920720E1A207B10569F489819A8126
:102D3000AB81BC810197A105B105C9F181EA92E09F
:102D4000A0E1B0E01DC0803B22E0920720E1A20795
:102D5000B105F9F489819A81AB81BC8183309105F9
:102D6000A105B10521F10497A105B10529F481EB75
:102D700092E0A0E1B0E004C082EB92E0A0E1B0E01C
:102D80008093B5029093B602A093B702B093B802B5
:102D90000EC0803F9105A041B10549F445EB52E0DA
:102DA00060E070E08BE390E089DD81119DCF809140
:102DB000B5029091B602A091B702B091B802A07F7F
:102DC000A5608093B5029093B602A093B702B0932A
:102DD000B802C090B502D090B602E090B702F09071
:102DE000B802C701B6010F900F900F900F90DF91BE
:102DF000CF91FF90EF90DF90CF900895CF92DF9228
:102E0000EF92FF92CF93DF9300D01F92CDB7DEB742
:102E10006B017C016894D0F8A701960160EA74E127
:102E200080E090E03FDF19821A821B821C82AE0193
:102E30004F5F5F4F60EA74E180E090E03FDD811119
:102E4000EBCF89819A81AB81BC818C159D05AE0544
:102E5000BF0511F780E00F900F900F900F90DF915A
:102E6000CF91FF90EF90DF90CF900895E091AB026B
:102E7000F091AC02309709F019940895FC01ED59D6
:102E8000FF4F808191810895FB01EB59FF4F4081F5
:102E90005181628173812CE632E0FC013183208311
:102EA00042835383648375830895CF93DF93EC014A
:102EB000E881F9810480F581E02DCE011995892BF7
:102EC00041F0E881F9810680F781E02DCE01199566
:102ED000EFCFDF91CF910895CF93DF93EC01E8819D
:102EE000F9810480F581E02D1995892B39F08D89C0
:102EF0009E89C80FD91F898D90E002C08FEF9FEF88
:102F0000DF91CF910895CF93DF931F92CDB7DEB7B6
:102F1000DC01ED91FC91008CF18DE02D41E050E061
:102F2000BE016F5F7F4F19958F3FBFEF9B0711F079
:102F3000898190E00F90DF91CF910895CF93DF9337
:102F40001F92CDB7DEB76983DC01ED91FC91028061
:102F5000F381E02D41E050E0BE016F5F7F4F199596
:102F60000F90DF91CF9108950F931F93FB01028182
:102F7000138124813581FC01EB54FF4F00831183C1
:102F80002283338332975183408332971182108298
:102F900081E090E01F910F9108950F931F93CF93BD
:102FA000DF9300D000D0CDB7DEB7DC01ED91FC910E
:102FB00000A0F1A1E02D2CE632E03A832983DB0169
:102FC00012960D911D912D913C9115970B831C83A9
:102FD0002D833E83BE016F5F7F4F199526960FB6F6
:102FE000F894DEBF0FBECDBFDF91CF911F910F913F
:102FF00008954093AB055093AC056093AD05709375
:10300000AE050895DC01ED91FC91008CF18DE02D71
:103010001994CF92DF92EF92FF920F931F93CF9369
:10302000DF93EC010E94CC268C858F3F09F4AAC067
:103030007E0161E6E60EF11CF70180819181009727
:1030400009F0A2C08D899E89AF89B88D49895A89B6
:103050006B897C89481759076A077B0709F492C076
:10306000AC01BD014F5F5F4F6F4F7F4F4C0F5D1F36
:10307000FA01418D9E01280F391FF901218D30E0A1
:10308000322F2227240F311DF701318320838E0137
:103090000D591F4FAC01BD014E5F5F4F6F4F7F4F0A
:1030A0004C0F5D1FFA01418D50E0542F44276C01F5
:1030B0007D01F3E0CF0ED11CE11CF11CCC0EDD1E16
:1030C000F601618D460F511DF801518340830E5F5B
:1030D0001F4FAC01BD014C5F5F4F6F4F7F4F4C0FD7
:1030E0005D1FFA01418D50E060E070E0F42EEE24A7
:1030F000DD24CC24AC01BD014B5F5F4F6F4F7F4F90
:103100004C0F5D1FFA01518D452F50E060E070E0DB
:10311000BA01552744274C0D5D1D6E1D7F1D6C01A6
:103120007D01F7E0CF0ED11CE11CF11CCC0EDD1EA1
:10313000F601F18C4F0D511D611D711D6C017D015A
:10314000F6E0CF0ED11CE11CF11CCC0EDD1EF60109
:10315000C18CD12CE12CF12CFE2CED2CDC2CCC24C0
:103160004C0D5D1D6E1D7F1DF801408351836283F0
:1031700073830896A11DB11D8D8B9E8BAF8BB88F6D
:10318000C90102C080E090E0DF91CF911F910F91C3
:10319000FF90EF90DF90CF900895CF93DF93EC01F5
:1031A0000E94CC268C858F3F29F0CF59DF4F888134
:1031B000998102C080E090E0DF91CF9108952F9235
:1031C0003F924F925F926F927F928F929F92AF92B7
:1031D000BF92CF92DF92EF92FF920F931F93CF9304
:1031E000DF9300D000D0CDB7DEB79C017A01DC01BF
:1031F000ED91FC910480F581E02D2D833E836B835E
:103200007C8319952D813E816B817C81009709F427
:1032100081C08C01E816F90608F487017B01812C36
:10322000912C54012801612C712C6901B1E6CB0E5F
:10323000D11CF901B196FA83E9831901F9E12F0E46
:10324000311C84149504A604B70408F061C0F90188
:1032500085899689A789B08DAC01BD014F5F5F4F0D
:103260006F4F7F4F458B568B678B708FE80FF91F21
:10327000818DD7018D937D01F60180819181019728
:1032800091838083D90155964D915D916D917C918B
:10329000589751968D919D910D90BC91A02D4817F6
:1032A00059076A077B0771F5F901118A128A138A97
:1032B000148A158A168A178A108E85859685A785A1
:1032C000B0898D7F85879687A787B08B80919E0474
:1032D000882349F0B10184852D833E830E94752C9B
:1032E0002D813E8109C069817A8184852D833E8349
:1032F0000E94752C3E812D812D833E830E94CC2619
:103300003E812D81BFEF8B1A9B0AAB0ABB0A99CF76
:10331000C80102C08FEF9FEF26960FB6F894DEBF6C
:103320000FBECDBFDF91CF911F910F91FF90EF9016
:10333000DF90CF90BF90AF909F908F907F906F90D5
:103340005F904F903F902F9008950F931F93CF93CE
:10335000DF93EA018C010F541F4FF8012081318166
:10336000420F531F4934510520F0C8E4D0E0C21B7E
:10337000D30B27593F4FAE01820F931F0E94053692
:10338000F801808191818C0F9D1F91838083CE01F4
:10339000DF91CF911F910F9108958F929F92AF92DD
:1033A000BF92CF92DF92EF92FF920F931F93CF9332
:1033B000DF93CDB7DEB760970FB6F894DEBF0FBED0
:1033C000CDBF6C0160E085E00E947A0D60E082E094
:1033D0000E947A0DF601ED54FF4F20813181322792
:1033E00023273227329680809180A280B380349741
:1033F000E080F180860107591F4FF601848587FF21
:103400000BC061E085E00E947A0D61E082E00E94DD
:103410007A0D80E090E056C00115110591F3F9E7AF
:10342000EF16F5E0FF0668F7682F082E000C770B03
:103430009BE08902F0011124EC50FC4F9085913003
:1034400001F790859923E9F2FE013196AF01DE0183
:1034500051961192EA17FB07E1F78983FC82EB8210
:103460008BE0869FF001879FF00D1124EC50FC4FFC
:10347000848195819E878D8782E090E09E838D83F5
:1034800038872F8389869A86AB86BC8694E4C92EBA
:10349000D12C20E130E067EC0E94CB0D811103C0FC
:1034A00080E090E002C082EF9FEF892B09F0A9CF66
:1034B00061E085E00E947A0D61E082E00E947A0D71
:1034C00081E090E060960FB6F894DEBF0FBECDBFEE
:1034D000DF91CF911F910F91FF90EF90DF90CF90F0
:1034E000BF90AF909F908F9008954F925F926F9290
:1034F0007F928F929F92AF92BF92CF92DF92EF9284
:10350000FF920F931F93CF93DF93CDB7DEB72C9726
:103510000FB6F894DEBF0FBECDBF5C013B014A0180
:103520001B821C821D821E82FB0120E080E090E055
:103530006AE03191332319F140ED430F4A3080F4B2
:10354000689FA001699F500D1124CA01C097830F85
:10355000911D37FD9A958F3F910559F350F313C094
:103560003E3289F4233079F0A3E0B0E0AC0FBD1F08
:10357000A20FB11D8C932F5F80E090E0DACF233053
:1035800011F48E8358C060E085E00E947A0D60E0FF
:1035900082E00E947A0D1092AB051092AC05109259
:1035A000AD051092AE05C3010E940609813408F0F2
:1035B0005BC09C0133272F5F3F4FC12CD12CE12CE6
:1035C000F12C00E010E0A3016AE482E00E94CB0D40
:1035D00087FD4AC070D72B013C018091AB059091CB
:1035E000AC05A091AD05B091AE05892B8A2B8B2B34
:1035F00009F443C061E085E00E947A0D61E082E059
:103600000E947A0D8091AB059091AC05A091AD051B
:10361000B091AE050097A105B10509F43EC08B83BA
:103620009C83AD83BE831092AB051092AC051092C3
:10363000AD051092AE05D501ED91FC910088F189A0
:10364000E02D8CE692E098878F838B819C81AD8101
:10365000BE8189879A87AB87BC87A401BE01695F59
:103660007F4FC50119951BC061E085E00E947A0D6E
:1036700061E082E00E947A0D10C01DD7DC01CB0111
:1036800084199509A609B70980329E44A105B105A0
:1036900008F0B0CF0E94CC26A0CF80E090E02C961E
:1036A0000FB6F894DEBF0FBECDBFDF91CF911F9153
:1036B0000F91FF90EF90DF90CF90BF90AF909F90D1
:1036C0008F907F906F905F904F900895CF93DF938E
:1036D000FC01848587FD13C0EF0198E08902F001A9
:1036E0001124E156FB4F1382128215821482178235
:1036F0001682118210820E9409248FEF8C87DF913D
:10370000CF9108950F931F93CF93DF9300D01F9213
:10371000CDB7DEB78C01FB0182819381A481B58195
:1037200089839A83AB83BC83D801ED91FC91048497
:10373000F585E02DBA01C8011995882359F024E0D8
:1037400030E0AE014F5F5F4F61E0F80184850E9479
:10375000E20581E00F900F900F900F90DF91CF91D5
:103760001F910F9108958F929F92AF92BF92CF9227
:10377000DF92EF92FF920F931F93CF93DF93CDB71A
:10378000DEB7A0970FB6F894DEBF0FBECDBFFC0129
:103790001D8E1E8E1F8E18A2158616861786108AFD
:1037A000118A128A138A148A158A168A178A108E29
:1037B000DC01AF59BF4F11961C921E9212961196C2
:1037C0001C921E9212961D921D921D921C9213978E
:1037D000A45BBF4F1D921C9282E090E09A83898384
:1037E0007627672776277C836B831D821E821F8244
:1037F000188694E08091BF02A091BF022BE0A29FA7
:10380000D0011124BD016F5B7B4F2091BF0230E0DE
:103810002F5F3F4F237033272093BF02DB011896A1
:103820002C91211108C09B01895F87FD35C0AB0138
:10383000455F5F4F04C09150E9F68FEF2DC0D9016D
:103840001D929D01A417B507D1F791E0DB011896F1
:103850009C932091A4023091A5022F5F3F4F30939B
:10386000A5022093A4022091A4023091A502232B4B
:1038700051F42091A4023091A5022F5F3F4F309365
:10388000A5022093A4022091A4023091A502DB019D
:1038900015963C932E931497848787FD81C05F0112
:1038A000B8E08B02F0011124E156FB4F9501235F34
:1038B0003F4F338322832C5F3F4F358324832C5F1C
:1038C0003F4F378326832C5F3F4F3183208320E097
:1038D00030E0AE01435E5F4F60E00E94E205F5011B
:1038E000848587FD56C0082F082E000C110B2BE095
:1038F0008202F0011124EC50FC4F908491E0991267
:1039000048C0918590FF03C024E5822E02C091E457
:10391000892E898F28E030E040E050E0BE016F5FE3
:103920007F4FCE0141960E94FB088BE0809FF00103
:10393000819FF00D1124EC50FC4F848195819C8F68
:103940008B8FC12CD12CE12CF12C00E010E02CE06D
:1039500030E0AE014F5E5F4F682D82E00E94CB0DDC
:10396000811117C0A8D56B017C01D5011D968C91E2
:1039700082FD18C0A0D5DC01CB018C199D09AE09D0
:10398000BF09803D9740A105B10560F40E94CC2697
:10399000ECCFD5011C968C913CD78FEFF501848735
:1039A000912C0DC0F50185859685A785B08982FF8C
:1039B000F0CF8B7FF50185879687A787B08B892D00
:1039C000A0960FB6F894DEBF0FBECDBFDF91CF91AA
:1039D0001F910F91FF90EF90DF90CF90BF90AF902D
:1039E0009F908F9008950F931F93CF93DF93EB01D8
:1039F000833109F43EC1E8F4863009F480C190F4C3
:103A0000843009F0BBC18881082E000C990BAA0BE9
:103A1000BB0B8093AB059093AC05A093AD05B09321
:103A2000AE05ACC1893009F4C6C0813109F41CC1AE
:103A3000A5C18A3259F020F48B3109F483C19EC1AB
:103A40008C3259F0823309F47FC098C18881882371
:103A500009F494C186E090E01FC08881813009F5A7
:103A60008091B1059091B2058130910581F48091EA
:103A7000A9059091AA05892B09F080C183E090E007
:103A80009093B4058093B30560E084E057C003973A
:103A900009F074C188E090E09093B4058093B30579
:103AA0006DC181116BC18091B1059091B2058130DA
:103AB0009105B1F586E090E09093B4058093B3054D
:103AC0008091A9059091AA05892BC1F010929D05BE
:103AD00010929E0510929F051092A0051092A105CC
:103AE0001092A2051092A3051092A4051092A505AC
:103AF0001092A6051092A7051092A805C9EFD5E06F
:103B000089919991009739F0DC01ED91FC9102883F
:103B1000F389E02D1995B6E0C730DB0789F708C0B7
:103B2000039731F487E090E09093B4058093B30558
:103B300061E084E00E947A0D61E081E0DF91CF9145
:103B40001F910F910C947A0D8091B1059091B2055F
:103B5000019709F013C188819981AA81BB81809363
:103B60009D0590939E05A0939F05B093A0058C851D
:103B70009D85AE85BF858093A1059093A205A093F6
:103B8000A305B093A4058C819D81AE81BF818093F4
:103B9000A5059093A605A093A705B093A80583E07B
:103BA00090E09093B4058093B30560E084E00E94B8
:103BB0007A0D60E0C2CFFB01ED59FF4F808181118A
:103BC00047C081E2E8EDF5E0DF011D928A95E9F753
:103BD000FB0101900020E9F73197AF01461B570B1D
:103BE00088ED95E00E94053681E090E09093B20563
:103BF0008093B10510929D0510929E0510929F052D
:103C00001092A0051092A1051092A2051092A30592
:103C10001092A4051092A5051092A6051092A70572
:103C20001092A805FE0101900020E9F73197BF012D
:103C30006C1B7D0B9E012F5D3F4FFE01EE59FF4F28
:103C40004081CE01DF91CF911F910F910C943A29C1
:103C50008BE090E09093B4058093B305DF91CF9112
:103C60001F910F910C94A82A8881882309F486C09B
:103C700033C08B01065F1F4FF80101900020E9F768
:103C80003197AF01401B510B81E2E5EBF5E0DF011D
:103C90001D928A95E9F74115510521F0B801CF0130
:103CA0000E9405368091AF059091B005892BB9F43B
:103CB0008981082E000C990BAA0BBB0B8093AB05D6
:103CC0009093AC05A093AD05B093AE058A81809327
:103CD000D6058B818093D70582E090E0DDCEF80198
:103CE00080E090E02291A091AF05B091B005A80FBF
:103CF000B91F2C93019686309105A1F7D9CF8091F9
:103D0000AF059091B005892BA1F0DB019C9680E076
:103D100090E02E91E091AF05F091B005E80FF91F0A
:103D20002083019686309105A1F71092B00510927C
:103D3000AF05BE0188ED95E0DF91CF911F910F9106
:103D40000C940E364091AB055091AC056091AD05D9
:103D50007091AE05411551056105710579F088E056
:103D6000FE01DA0101900D928A95E1F71092AB0500
:103D70001092AC051092AD051092AE05DF91CF9177
:103D80001F910F91089560E080910202DCD164E6FA
:103D900070E080E090E00E94350C61E080910202CA
:103DA000D2D164E670E080E090E00C94350C9FB7CF
:103DB000F8948091A602882319F081508093A6027E
:103DC0008091A602811105C08CB58F7B8CBD1092AD
:103DD000B2029FBF08951F920F920FB60F92112447
:103DE0000BB60F922F933F934F935F936F937F93F5
:103DF0008F939F93AF93BF93EF93FF93E0E0F0E037
:103E00001995FF91EF91BF91AF919F918F917F9104
:103E10006F915F914F913F912F910F900BBE0F903B
:103E20000FBE0F901F90189561E082E08CD161E089
:103E300088E089D161E083E086D161E087E083D1C9
:103E400061E085E080D161E086E07DC1CF93DF93C2
:103E5000EC0161E082E0F4D161E088E0F1D161E061
:103E600083E0EED161E087E0EBD161E085E0E8D16D
:103E700061E086E0E5D1CE01DF91CF91D5CF61152C
:103E8000710579F0FB0101900020E9F73197AF014E
:103E9000461B570BDC01ED91FC910280F381E02D74
:103EA000199480E090E008950E9401364F925F924D
:103EB0006F927F92EF92FF920F931F93CF93DF93B6
:103EC000CDB7DEB7A1970FB6F894DEBF0FBECDBF5A
:103ED0007C01FA01CB0119A2223008F42AE08E01FC
:103EE0000F5D1F4F422E512C612C712CBF01A3017D
:103EF00092010E94ED3CF901CA01015011096A309A
:103F000014F4605D01C0695CD8016C93232B242BF1
:103F1000252B61F7B801C701B2DFA1960FB6F8945F
:103F2000DEBF0FBECDBFDF91CF911F910F91FF90EC
:103F3000EF907F906F905F904F900895CF92DF92B7
:103F4000EF92FF920F931F93CF93DF936C017A014F
:103F50008B01C0E0D0E0CE15DF0589F0D8016D916E
:103F60008D01D601ED91FC910190F081E02DC6010B
:103F70001995892B11F47E0102C02196ECCFC7015F
:103F8000DF91CF911F910F91FF90EF90DF90CF9035
:103F900008953FB7F8948091E9039091EA03A091C6
:103FA000EB03B091EC0326B5A89B05C02F3F19F099
:103FB0000196A11DB11D3FBFBA2FA92F982F8827A9
:103FC000820F911DA11DB11DBC01CD0142E0660F04
:103FD000771F881F991F4A95D1F7089508958EEF8E
:103FE00094E00E94632A21E0892B09F420E0822FCB
:103FF0000895DC01ED91FC910190F081E02D199480
:104000008F929F92AF92BF92CF92DF92EF92FF92E8
:104010000F931F93CF93DF937C018B016C0182E0A0
:10402000C80ED11C4701E5E08E0E911CC0E0D0E027
:10403000F60141916F0150E060E070E02AE0C801B4
:1040400035DF5C016EE2C801D4DF8A0D9B1DC80F0D
:10405000D91FC814D90461F7F701458150E060E029
:1040600070E02AE0C80122DF8C0F9D1FDF91CF9105
:104070001F910F91FF90EF90DF90CF90BF90AF9086
:104080009F908F9008951F920F920FB60F92112458
:104090000BB60F922F933F934F935F936F937F9342
:1040A0008F939F93AF93BF93EF93FF938EEF94E023
:1040B0000E94432DFF91EF91BF91AF919F918F91FE
:1040C0007F916F915F914F913F912F910F900BBE18
:1040D0000F900FBE0F901F9018951F920F920FB662
:1040E0000F9211240BB60F922F938F939F93EF9300
:1040F000FF93E0910E05F0910F058081E09114058A
:10410000F091150582FD12C09081809117058F5F97
:104110008F7320911805821751F0E0911705F0E098
:10412000E250FB4F958F8093170501C08081FF916E
:10413000EF919F918F912F910F900BBE0F900FBE1B
:104140000F901F901895362F90E0FC01E656FD4F1A
:104150004491FC01E05CFC4F2491FC01E650FD4FD2
:104160009491992309F46BC0442309F455C050E09D
:10417000FA013197E231F10508F04EC08827EF5778
:10418000FF4F8F4F0C949C34809180008F7707C035
:10419000809180008F7D03C080918000877F809315
:1041A00080003AC084B58F7702C084B58F7D84BD0E
:1041B00033C08091B0008F7703C08091B0008F7DB5
:1041C0008093B00029C0809190008F7707C08091C4
:1041D00090008F7D03C080919000877F8093900036
:1041E0001BC08091A0008F7707C08091A0008F7DB9
:1041F00003C08091A000877F8093A0000DC08091B4
:1042000020018F7707C0809120018F7D03C08091AE
:104210002001877F80932001E92FF0E0EE0FFF1F40
:10422000E058FD4FA591B4918FB7F894EC913111FE
:1042300003C020952E2301C02E2B2C938FBF0895F1
:10424000CF93DF9390E0FC01E05CFC4F2491FC01F4
:10425000E650FD4F8491882361F190E0880F991F0B
:10426000FC01EA59FE4FC591D491FC01E058FD4F85
:10427000A591B491611109C09FB7F89488812095E8
:1042800082238883EC912E230BC0623061F49FB7A8
:10429000F8943881822F809583238883EC912E2B8C
:1042A0002C939FBF06C08FB7F894E8812E2B2883EC
:1042B0008FBFDF91CF9108951F93CF93DF93182F76
:1042C000EB0161E0BDDF209711F460E004C0CF3F57
:1042D000D10531F461E0812FDF91CF911F9133CF70
:1042E000E12FF0E0E656FD4FE4914E2F50E0FA0149
:1042F0003197E231F10508F09DC08827ED56FF4F58
:104300008F4F0C949C3484B5806884BDC7BD97C022
:1043100084B5806284BDC8BD92C0809180008068F1
:1043200080938000D0938900C093880088C08091DA
:104330008000806280938000D0938B00C0938A00BD
:104340007EC080918000886080938000D0938D0033
:10435000C0938C0074C08091B00080688093B000DE
:10436000C093B3006CC08091B00080628093B000B5
:10437000C093B40064C080919000806880939000E6
:10438000D0939900C09398005AC0809190008062A9
:1043900080939000D0939B00C0939A0050C080916E
:1043A0009000886080939000D0939D00C0939C0003
:1043B00046C08091A00080688093A0008091A000FA
:1043C0008F7B8093A000D093A900C093A80037C032
:1043D0008091A00080628093A000D093AB00C09336
:1043E000AA002DC08091A00088608093A000D09387
:1043F000AD00C093AC0023C0809120018068809301
:104400002001D0932901C093280119C08091200177
:10441000806280932001D0932B01C0932A010FC0AA
:1044200080912001886080932001D0932D01C0935A
:104430002C0105C0C038D1050CF04CCF46CFDF9120
:10444000CF911F9108958F929F92AF92BF92CF927A
:10445000DF92EF92FF926B017C019BDD4B015C01CF
:10446000C114D104E104F104E9F093DDDC01CB01D6
:1044700088199909AA09BB09883E9340A105B1058D
:1044800078F321E0C21AD108E108F10888EE880E1D
:1044900083E0981EA11CB11CC114D104E104F104F5
:1044A00021F7DECFFF90EF90DF90CF90BF90AF90DD
:1044B0009F908F9008952FB7F8946091E5037091C5
:1044C000E6038091E7039091E8032FBF08951F92C0
:1044D0000F920FB60F9211242F933F938F939F93B8
:1044E000AF93BF938091E5039091E603A091E7031A
:1044F000B091E8033091E40323E0230F2D3720F43B
:104500000196A11DB11D05C026E8230F0296A11D2D
:10451000B11D2093E4038093E5039093E603A093F9
:10452000E703B093E8038091E9039091EA03A09137
:10453000EB03B091EC030196A11DB11D8093E9033B
:104540009093EA03A093EB03B093EC03BF91AF9178
:104550009F918F913F912F910F900FBE0F901F90C1
:1045600018951F920F920FB60F9211240BB60F924F
:104570002F933F934F935F936F937F938F939F936B
:10458000AF93BF93EF93FF93E0912902F0912A023A
:104590001995FF91EF91BF91AF919F918F917F916D
:1045A0006F915F914F913F912F910F900BBE0F90A4
:1045B0000FBE0F901F9018951F920F920FB60F927B
:1045C00011240BB60F922F933F934F935F936F93EA
:1045D0007F938F939F93AF93BF93EF93FF93E0915C
:1045E0002702F09128021995FF91EF91BF91AF91A9
:1045F0009F918F917F916F915F914F913F912F91FB
:104600000F900BBE0F900FBE0F901F9018951F922A
:104610000F920FB60F9211240BB60F922F933F9368
:104620004F935F936F937F938F939F93AF93BF93BA
:10463000EF93FF93E0911D02F0911E021995FF91F7
:10464000EF91BF91AF919F918F917F916F915F910A
:104650004F913F912F910F900BBE0F900FBE0F9077
:104660001F9018951F920F920FB60F9211240BB640
:104670000F922F933F934F935F936F937F938F93FB
:104680009F93AF93BF93EF93FF93E0911B02F09141
:104690001C021995FF91EF91BF91AF919F918F915E
:1046A0007F916F915F914F913F912F910F900BBE32
:1046B0000F900FBE0F901F9018951F920F920FB67C
:1046C0000F9211240BB60F922F933F934F935F934A
:1046D0006F937F938F939F93AF93BF93EF93FF93CA
:1046E000E0912502F09126021995FF91EF91BF917B
:1046F000AF919F918F917F916F915F914F913F917A
:104700002F910F900BBE0F900FBE0F901F9018951A
:104710001F920F920FB60F9211240BB60F922F9388
:104720003F934F935F936F937F938F939F93AF9339
:10473000BF93EF93FF93E0912302F0912402199528
:10474000FF91EF91BF91AF919F918F917F916F9169
:104750005F914F913F912F910F900BBE0F900FBE25
:104760000F901F9018951F920F920FB60F92112461
:104770000BB60F922F933F934F935F936F937F935B
:104780008F939F93AF93BF93EF93FF93E091210299
:10479000F09122021995FF91EF91BF91AF919F91F6
:1047A0008F917F916F915F914F913F912F910F90DA
:1047B0000BBE0F900FBE0F901F9018951F920F9277
:1047C0000FB60F9211240BB60F922F933F934F9376
:1047D0005F936F937F938F939F93AF93BF93EF9369
:1047E000FF93E0911F02F09120021995FF91EF9144
:1047F000BF91AF919F918F917F916F915F914F91F9
:104800003F912F910F900BBE0F900FBE0F901F90F6
:104810001895AF92BF92CF92DF92EF92FF920F93D3
:104820001F93CF93DF9300D01F92CDB7DEB787FDE4
:104830003BC0A82E082E000CBB089BE08902F001AB
:104840001124EC50FC4F9085913071F5898384815F
:1048500095819C838B83108615821482818580FFCD
:1048600002C06EE401C069E4C12CD12CE12CF12C12
:1048700000E010E024E030E0AE014F5F5F4F82E0E7
:104880000E94CB0D811187EF9BE09A9DF0019B9DCB
:10489000F00D1124EC50FC4F9F01255F3F4F11920A
:1048A000E217F307E1F701C08AEF0F900F900F9026
:1048B0000F90DF91CF911F910F91FF90EF90DF90BC
:1048C000CF90BF90AF9008954F925F926F927F927A
:1048D0008F929F92AF92BF92CF92DF92EF92FF9210
:1048E0000F931F93CF93DF9300D01F92CDB7DEB706
:1048F000F82E8A01653071F038F4613009F4B1C1E5
:10490000643009F401C233C2663031F1693009F410
:10491000A9C02DC241155105E9F0DA0111968C911B
:1049200087FD18C0BF2DE8E0BE02800111240156AA
:104930001B4FD8016D917C918F2D0E94D42CD801F2
:104940001296ED91FC91139780819181A281B381A0
:10495000816009C28F2DEFC160E085E00E947A0D71
:1049600060E082E00E947A0DEF2D0F2C000CFF0B0F
:10497000B3E0EE0FFF1FBA95E1F70115110509F439
:1049800058C0D80112968D919C911397181619064C
:104990000CF04FC09F0121563B4F5901D90114968D
:1049A0002D913C9115972C01990F66087708F90114
:1049B0004081518162817381D301C201840F951FAF
:1049C000A61FB71F81349105A105B10558F0D50187
:1049D0001296ED91FC91139780819181A281B38110
:1049E0008260C1C1F90180839183A283B38340E4D3
:1049F00050E060E070E0481B590B6A0B7B0B4031C4
:104A000051056105710568F4D80114968D919C914A
:104A10001597892BF1F0D5011296ED91FC91139722
:104A200005C1F50160817181680F791F8F2DBCD799
:104A300010C0E156FB4F0280F381E02D808191810F
:104A4000A281B3818E7F80839183A283B3838F2DD4
:104A5000E0DE61E085E00E947A0D61E082E00E9484
:104A60007A0D85C160E085E00E947A0D60E082E009
:104A70000E947A0D0115110561F3D80112966D910E
:104A80007C9113971616170624F780919E044F2DDC
:104A90000F2C000C550BFA01A3E0EE0FFF1FAA9597
:104AA000E1F7823008F084C09F0121563B4F390165
:104AB000F901A481B5818D919D910D90BC91A02D9E
:104AC00020813181F801A480B5806A0D7B1D5901D8
:104AD000A80EB91EF50170834C015D01FFEF8F1A1E
:104AE0009F0AAF0ABF0A820E931EF40160834C0135
:104AF0005D01F2E08F0E911CA11CB11C820E931E71
:104B0000F8016085F40160834C015D01F3E08F0ED4
:104B1000911CA11CB11C820E931EF8016185F40149
:104B200060834C015D01F4E08F0E911CA11CB11C4F
:104B3000820E931EF8016585F40160834C015D01CE
:104B4000F5E08F0E911CA11CB11C820E931EF80182
:104B50006485F40160834C015D01F6E08F0E911CC9
:104B6000A11CB11C820E931EF8016385F4016083C1
:104B70004C015D01F7E08F0E911CA11CB11C820E4F
:104B8000931EF8012285F4012083F30124813581ED
:104B9000F80182809380092C000CAA08BB08880DBC
:104BA000991DAA1DBB1D0896A11DB11DF90111C0BB
:104BB000E156FB4F0480F581E02DCB01770FAA0B66
:104BC000BB0B80809180A280B380880D991DAA1DA7
:104BD000BB1D80839183A283B38363E0440F551F81
:104BE0006A95E1F7FA01E156FB4FA481B5818D91F9
:104BF0009D910D90BC91A02D78E4872E912CA12C35
:104C0000B12C881A990AAA0ABB0A28E182169104D3
:104C1000A104B104A8F4D80114968D919C91159724
:104C2000892B09F416CF0280F381E02D80819181D8
:104C3000A281B381826080839183A283B38309CFF1
:104C400020919E04222311F0233021F4FA01E15631
:104C5000FB4F089660817181680F791F8F2D45D6B3
:104C6000F8CE4115510509F482C0FA018081811105
:104C70007EC02F2D0F2C000C330BF90143E0EE0FFB
:104C8000FF1F4A95E1F7BF0161567B4FDB0112968A
:104C90004D915C911397FA0180819181A281B3813A
:104CA000846080839183A283B383F6E0FF1524F1AF
:104CB000F7FC5DC08BE0829FF001839FF00D112413
:104CC000EC50FC4F8085813009F051C0F9821A8286
:104CD000848195819C838B83C12CD12CE12CF12C78
:104CE00000E010E024E030E0AE014F5F5F4F62E48F
:104CF00082E00E94CB0D3BC0DB016D917C91685F2F
:104D00007F4F8F2DF2D533C04115510581F1FA0146
:104D1000208127FD2CC068E08602F0011124E156B5
:104D2000FB4F0280F381E02D80819181A281B381CC
:104D300083FF03C0822F6DDD1AC0AC01BD01662761
:104D40004083518362837383D8018C91082E000CB9
:104D5000990BAA0BBB0BDC0199278827842B952B79
:104D6000A62BB72B886080839183A283B3830F9097
:104D70000F900F900F90DF91CF911F910F91FF90A7
:104D8000EF90DF90CF90BF90AF909F908F907F90EB
:104D90006F905F904F9008957F928F929F92AF9205
:104DA000BF92CF92DF92EF92FF920F931F93CF9318
:104DB000DF93CDB7DEB72D970FB6F894DEBF0FBEE9
:104DC000CDBFEFE9F4E0A281B381109719F08C9187
:104DD00081FD35C2389624E0E73FF207A1F78091C4
:104DE0009E04882309F492C0E0907204F09073044A
:104DF000E114F10409F488C010916D04212F012EF3
:104E0000000C330B4BE01402F0011124EC50FC4F6A
:104E100080819181892B09F477C082819381892BCC
:104E200009F472C08085813009F06EC0828193815F
:104E3000A701481B590BCA01181619063CF482E059
:104E400080939E04E280F38000E004C083E08093BE
:104E50009E0401E04BE0429FC001439F900D11244E
:104E6000FC01EC50FC4F6F01408151816091F003D7
:104E70007091F1038091F2039091F30397010E94E6
:104E8000030A811139C0F6018081918190936F04EA
:104E900080936E04F0927104E09270048091720429
:104EA000909173048E199F099093730480937204F8
:104EB0008091EE039091EF03892B51F0E091EE0386
:104EC000F091EF034EE654E06091ED03812F1995C8
:104ED0008091F0039091F103A091F203B091F3035C
:104EE0008E0D9F1DA11DB11D8093F0039093F103C2
:104EF000A093F203B093F30380919E04833021F4D6
:104F000010929E040E948C0880E0A0C18EEEC82EF4
:104F10008FE1D82EEE24E394F12C27E1A22EB12CC0
:104F200080918704882381F3809187048150809346
:104F3000870477247394AE01475F5F4F60E770E1A9
:104F400080E090E00E945E14182F811171C1898564
:104F50009A85AB85BC8580FF68C180911A02082EB6
:104F6000000C990BAA0BBB0BAC018230910509F424
:104F700048C08330910509F466C19C012251310972
:104F80002430310538F49501281B390B2F3FFFEFF2
:104F90003F07C9F5E091F704F091F80460819C01A6
:104FA0002A5031092430310548F40697970102C090
:104FB000220F331F8A95E2F7C90117C0423351050A
:104FC000B1F043335105A9F044335105A1F0453305
:104FD000510599F0CE978830910578F4A70102C069
:104FE000440F551F8A95E2F7CA01809507C087EFE5
:104FF00005C08BEF03C08DEF01C08EEF8623808349
:1050000028C020E030E0283020F5822F90E0FC011D
:105010003197E730F10570F48827EB55FF4F8F4F3C
:105020000C949C34E8980DC0E9980BC0EA9809C02C
:10503000EB9807C0EC9805C0ED9803C0EE9801C04E
:10504000EF98F901FF27EE0FFF1FE55EFD4FD182BC
:10505000C08289859A85AB85BC858E7F89879A8732
:10506000AB87BC8729853A854B855C8560E770E115
:1050700080E090E00E94AD15182F8111D9C0709288
:10508000860489859A85AB85BC8532E0B695A7955F
:10509000979587953A95D1F74C015FE09522811459
:1050A000910409F4C4C019821A821B821C82AE01C9
:1050B0004F5F5F4F64E870E180E090E00E945E1413
:1050C000882329F08D870E94CE098D85ACC0698127
:1050D0007A818B819C81609388047093890480938A
:1050E0008A0490938B04840120E030E000938C04C8
:1050F00010938D0420938E0430938F0404E010E00D
:1051000020E030E0AE014B5F5F4F0E940316182F86
:105110008F81988598878F83112321F00E94CE0973
:10512000812F81C08F8198858815990559F08F81CD
:105130009885881A990A65E08616910418F00E94ED
:10514000CE0970C08D81813061F48091900490917E
:105150009104892B09F459C0E0919004F0919104D5
:1051600046C08D81823061F48091920490919304C5
:10517000892B09F44AC0E0919204F091930437C05E
:105180008D81843059F48091940490919504892BF9
:10519000E1F1E0919404F091950429C08D8186306D
:1051A00059F480919A0490919B04892B71F1E091BC
:1051B0009A04F0919B041BC08D81873059F4809133
:1051C000960490919704892B01F1E0919604F09157
:1051D00097040DC08D81853029F580919C049091B4
:1051E0009D04892B91F0E0919C04F0919D046F81C6
:1051F00078858E8129813A814B815C81285F3F4F80
:105200004F4F5F4F68507109199580919E0481112D
:105210000FC080918604882359F00E94D709882303
:1052200039F001C08AEF182F03C014EF01C01EEF40
:1052300080919E04811105C011117DCE71CE84EF45
:1052400005C0812F03C021E030E0DDCE2D960FB6E2
:10525000F894DEBF0FBECDBFDF91CF911F910F91AC
:10526000FF90EF90DF90CF90BF90AF909F908F9086
:105270007F900895CF92DF92EF92FF920F931F934A
:10528000CF93DF93CDB7DEB7CC56D1090FB6F894E4
:10529000DEBF0FBECDBF6C01E62EF42E890181E08A
:1052A000481709F12115310511F484EF92C0E2E0AD
:1052B0004E1319C0C9010E9406098034910599F462
:1052C000F8019801205C3F4F919180ED890F873361
:1052D00060F786EC890F873040F397549A3128F3B2
:1052E000E217F30789F78FEF8E0D8032F0F62E2D3F
:1052F00030E040E050E0B601CE01895B9F4F0E9454
:10530000FB08E7E4F0E0EC0FFD1FEE0DF11D10824D
:105310008FEF90E027969FAF8EAF2797A9961FAE8D
:10532000A9972396FFAE2397F3E0FF1221C0F8015F
:1053300080818983843008F0B8CF21812A83822F2D
:105340008F7E8A3009F0B1CF30E040E050E0B80104
:105350006E5F7F4FCE0103960E94FB08F8018181AA
:10536000E3E0F0E0EC0FFD1FE80FF11D108222C01A
:10537000F2E0FF120FC0C8010E9406099C012150F3
:1053800031092034310508F090CF2E5F3F4F40E0C7
:1053900050E007C084E0F8120AC02EE330E040E09D
:1053A00050E0B801CE0101960E94FB0803C0E1E085
:1053B000FE127BCFC12CD12CE12CF12C00E010E0AF
:1053C0002CE630E0AE014F5F5F4F68E281E00E9463
:1053D000CB0DC459DF4F0FB6F894DEBF0FBECDBF63
:1053E000DF91CF911F910F91FF90EF90DF90CF90C1
:1053F00008951F93CF93DF9300D01F92CDB7DEB7F0
:10540000182F0E94510C811134C0812F0E946A080C
:10541000182F87FD2CC0AE014F5F5F4F68E071E031
:1054200082E090E00E945E14811121C081E090E052
:10543000A0E0B0E0AC01BD0104C0440F551F661FE1
:10544000771F1A95D2F789819A81AB81BC819A0125
:10545000AB01282B392B4A2B5B2B29833A834B83B7
:105460005C8368E071E082E090E00E94AD150E94EC
:105470008C080F900F900F900F90DF91CF911F919C
:105480000895FC01918D828D981761F0828DDF0166
:10549000A80FB11D5D968C91928D9F5F9F73928F27
:1054A00090E008958FEF9FEF0895FC01918D828D1C
:1054B000981731F0828DE80FF11D858D90E00895E9
:1054C0008FEF9FEF0895FC01918D228D892F90E041
:1054D000805C9F4F821B91098F739927089580E00C
:1054E00090E0892B21F00E94EF1F811125C080E000
:1054F00090E0892B41F080E090E0892B21F00E9420
:10550000000081111CC080E090E0892B41F080E018
:1055100090E0892B21F00E940000811113C080E0EF
:1055200090E0892BA1F080E090E0892B81F00E942F
:10553000000081110AC008950E940000D8CF0E9487
:105540000000E1CF0E940000EACF0C940000089513
:105550008F929F92AF92BF92CF92DF92EF92FF9283
:105560000F931F93CF93DF93CDB7DEB7C756D140CC
:105570000FB6F894DEBF0FBECDBF809107069091A5
:105580000806892B11F40E9414028091A9059091BC
:10559000AA05892BC1F010929D0510929E051092CC
:1055A0009F051092A0051092A1051092A2051092DD
:1055B000A3051092A4051092A5051092A6051092BD
:1055C000A7051092A805C12CD12CE12CF12C00E0EC
:1055D00010E020E030E040E050E069E281E00E942D
:1055E000CB0D87FF07C084E090E09093B4058093D3
:1055F000B3053EC01092B4051092B30581E090E06F
:105600009093B2058093B1050E945B224B015C012F
:105610008091B3059091B40587709927892B79F40F
:105620000E945B22DC01CB0188199909AA09BB09F8
:1056300080369A4EA105B10510F4AEDBE9CF81E2C8
:10564000E8EDF5E0DF011D928A95E9F78091B30559
:105650009091B40583709927892B09F033C110927A
:10566000B2051092B1058091B305833009F40BC1E6
:10567000CE018E599E4F0E943206CE59DE4F888150
:10568000C256D1401F928F93CD59DE4F8881C356A9
:10569000D1401F928F9389E892E09F938F935E0190
:1056A0008BEAA81A8EEFB80ABF92AF920E94153605
:1056B0000FB6F894DEBF0FBECDBF80910706909164
:1056C0000806892B11F40E9414028E0103531F4F08
:1056D00088E8F80111928A95E9F7B501C8010E949E
:1056E0000E36FF24F394D8019196FC929197DF96A1
:1056F000FC92C35FDE4F1882CD50D14080ECC25F78
:10570000DE4F8883CE50D14088EAC15FDE4F888368
:10571000CF50D140C05FDE4FF882C051D140CF5E44
:10572000DE4FF882C151D140C8010E94060901979D
:10573000809778F428E830E040E050E0B801CE01EE
:1057400001960E94FB0889E992E00E940609892BD4
:1057500039F48BE090E09093B4058093B30593C047
:1057600020E430E040E050E069E972E0CE01875784
:105770009F4F0E94FB08C753DF4FF882C95CD0409F
:105780001092A8028091AD029091AE02A091AF025A
:10579000B091B00280359341A105B10508F0A2C0D7
:1057A0008AA181508AA320E430E040E050E069E91A
:1057B00072E0CE01875B9F4F0E94FB08C757DF4F07
:1057C000F882C958D0402AE830E0C12CD12CE12C15
:1057D000F12C00E010E0AE014F5F5F4F68E881E020
:1057E0000E94CB0D87FDB5CF8AE090E09093B40581
:1057F0008093B30582E090E09093B2058093B10569
:1058000081E2E8EDF5E0DF011D928A95E9F7F50107
:1058100001900020E9F73197AF014A195B09B50102
:1058200088ED95E00E94053624E030E040E050E04D
:10583000BE01625F7E4F8DE995E00E94FB088FEF0D
:105840009FEFAFEFB0E08093A1059093A205A093E6
:10585000A305B093A40580919D0590919E05A0910C
:105860009F05B091A0058093A5059093A605A093F0
:10587000A705B093A80560E084E00E947A0D60E07F
:1058800081E00E947A0D8091070690910806892B8D
:1058900011F40E94140280DA8091B305C959DE4FD9
:1058A0000FB6F894DEBF0FBECDBFDF91CF911F9131
:1058B0000F91FF90EF90DF90CF90BF90AF909F90AF
:1058C0008F900895C12CD12CE12CF12C00E010E038
:1058D00020E030E040E050E065E081E00E94CB0D48
:1058E0005BDAC1CE2CEC30E070CFCF92DF92EF923A
:1058F000FF920F931F93CF93DF93CDB7DEB7289717
:105900000FB6F894DEBF0FBECDBF87FD3CC061155A
:105910007105C9F19BE08902F0011124EC50FC4FA4
:105920009085913081F52085222339F17183608340
:1059300020E130E033832283228521111EC092872B
:105940004FEF5FEFBA0149835A836B837C838D836A
:105950008481958198878F83C12CD12CE12CF12CE7
:1059600000E010E028E030E0AE014F5F5F4F68E4F8
:1059700082E00E94CB0D811103C080E090E005C061
:1059800082EF9FEF02C08AEF9FEF28960FB6F89440
:10599000DEBF0FBECDBFDF91CF911F910F91FF9062
:1059A000EF90DF90CF900895CF92DF92EF92FF9229
:1059B0000F931F93CF93DF93CDB7DEB728970FB622
:1059C000F894DEBF0FBECDBF87FD49C061157105DC
:1059D00009F445C0282F082E000C330B9BE08902E8
:1059E000F0011124EC50FC4F90859130C1F571838A
:1059F000608340E150E0538342834285411132C0CD
:105A00009287918590FF02C06DE401C066E4CC24CA
:105A1000CA94DC2C7601C982DA82EB82FC828D8307
:105A20008BE0829FF001839FF00D1124EC50FC4F1E
:105A30008481958198878F83C12CD12CE12CF12C06
:105A400000E010E028E030E0AE014F5F5F4F82E001
:105A50000E94CB0D882331F082EF9FEF05C08AEFC3
:105A60009FEF02C080E090E028960FB6F894DEBF6A
:105A70000FBECDBFDF91CF911F910F91FF90EF909F
:105A8000DF90CF900895FC01848DDF01A80FB11D38
:105A9000A35ABF4F2C91848D90E001968F73992764
:105AA000848FA689B7892C93A089B1898C91806451
:105AB0008C93938D848D981306C00288F389E02D12
:105AC00080818F7D80830895EF92FF920F931F93C3
:105AD000CF93DF93EC0181E0888F9B8D8C8D9813A1
