:10000000C3C100000C9408210C94DD200C94B22094
:100010000C9487200C945C200C9431200C940620C6
:100020000C94DB1FE2C10000E0C10000DEC1000053
:10003000DCC10000DAC10000D8C10000D6C1000058
:10004000D4C10000D2C10000D0C10000CEC1000068
:100050000C94881ACAC10000C8C100000C94911FFA
:10006000C4C100000C941F0F0C94F50EBEC100001B
:10007000BCC10000BAC10000B8C10000B6C1000098
:10008000B4C10000B2C10000B0C10000AEC10000A8
:10009000ACC10000AAC10000A8C10000A6C10000B8
:1000A000A4C10000A2C10000A0C100009EC10000C8
:1000B0009CC100009AC1000098C1000096C10000D8
:1000C00094C1000092C100000C94D1088EC10000C0
:1000D0008CC100008AC1000088C1000086C10000F8
:1000E00084C10000F402CC02D402DC02E402FC026F
:1000F0000403620458045A045C045E046404660445
:10010000840F870F760F7A0F7E0FBE0F8B0F8F0F26
:10011000950F990F9D0FA30FA70FAB0FBE0FB10F38
:10012000B50FB90FAD1EB21EB71EC11ECB1E441FA8
:10013000D51EDD1EE51EEF1EF91E031F121F1C1F1C
:10014000441F261F301F3A1FD824D824E624C52474
:10015000CF24CF24DF24DF24F424C1240C250C2554
:100160000C250C25D22400002000230026002900A5
:100170002C002F00320000010000030106010901DC
:1001800005050505070508080808020202020A0A13
:100190000808040404040101010101010101030331
:1001A000030303030303040707070C0C0C0C0C0CDC
:1001B0000C0C0202020206060606060606060B0BD9
:1001C0000B0B0B0B0B0B010210202008081020401A
:1001D000102040800201020108040201010204080B
:1001E0001020408080402010080402018004020199
:1001F00080402010080402010804020101020408E2
:1002000010204080010204081020408000002200DD
:10021000250028002B002E003100340002010000D0
:10022000050108010B0100000A0B02090C0D0E0864
:1002300007030401000000000000000000000000AF
:1002400000000000000000000000000000000000AE
:10025000000012111000000000000000000000006B
:10026000000000000000000000000000000021006D
:10027000240027002A002D00300033000101000077
:10028000040107010A010009121B242D363F4841D1
:100290005A536C657E7719100B023D342F26515846
:1002A000434A757C676E323B2029161F040D7A7312
:1002B00068615E574C452B2239300F061D14636A66
:1002C0007178474E555C646D767F4049525B2C25B2
:1002D0003E3708011A137D746F6659504B42353C06
:1002E000272E1118030A565F444D727B60691E1752
:1002F0000C053A3328214F465D546B627970070E26
:10030000151C232A31384148535A656C777E090001
:100310001B122D243F3658514A437C756E671019C5
:10032000020B343D262F737A6168575E454C3B3291
:1003300029201F160D046A6378714E475C55222BE5
:100340003039060F141D252C373E0108131A6D6431
:100350007F7649405B523C352E2718110A03747D85
:10036000666F5059424B171E050C333A21285F56D1
:100370004D447B7269600E071C152A233831464FA5
:10038000545D626B7079612D11241FBECFEFD1E2F5
:10039000DEBFCDBF00E00CBF13E0A0E0B2E0E8E0BC
:1003A000FFE600E00BBF02C007900D92A632B10736
:1003B000D9F727E0A6E2B3E001C01D92A136B2074B
:1003C000E1F711E0C4ECD1E000E006C0219701099B
:1003D000802FFE010E945E31C33CD10780E00807F8
:1003E000A9F70E94102E0C9482370ACECF93DF9388
:1003F000BC0185E394E00E948D1BEC0164E772E090
:1004000085E394E00E948D1B8C0F9D1FDF91CF919F
:1004100008950F931F93CF93DF9381E896E0909315
:10042000340480933304C62FD72FC230D10509F48A
:1004300096C0C330D10509F4EFC08B01C8014297C3
:10044000049748F427E130E02C1B3D0B2F3F8FEF42
:10045000380709F086C0862F62E00E94D20FF801AB
:10046000EA53FE4FE491E0933204F801E058FE4F66
:10047000E491F0E0EE0FFF1FEA59FE4F8591949151
:10048000909331048093300498012A50310924302C
:100490003105A8F0C801C2978430910580F00C970F
:1004A000089768F082E08093210181E080937300D7
:1004B0008FEF90E090932D0180932C01B0C080913C
:1004C00068002430310530F0A8014E5351094830FE
:1004D000510510F091E001C094E0892B80936800F1
:1004E0002430310558F0C801C2978430910530F0AE
:1004F0000C97089730F0E0E0F0E005C0EBE6F0E0A4
:1005000002C0EDE6F0E0F0930306E093020690816E
:100510002430310510F4269712C0C233D105A9F05A
:10052000C333D105A1F0C433D10599F0C533D1054A
:1005300091F00E5311090830110568F4EE9781E02F
:1005400001C0880FCA95EAF707C088E005C084E0BB
:1005500003C082E001C081E0892B808360C020E07D
:1005600030E0283008F05BC0D901BB27AA0FBB1FC1
:10057000AF5FBD4F81E896E011969C938E93822FDA
:1005800090E0FC013197E730F10530F58827EE580F
:10059000FF4F8F4F0C945E31809169008C7F826099
:1005A00080936900E89A3BC080916900837F8860EE
:1005B00080936900E99A33C0809169008F7C8062E2
:1005C00080936900EA9A2BC0809169008F738068DC
:1005D00080936900EB9A23C080916A008C7F8260CF
:1005E00080936A00EC9A1BC080916A00837F8860C8
:1005F00080936A00ED9A13C080916A008F7C8062BC
:1006000080936A00EE9A0BC080916A008F738068B5
:1006100080936A00EF9A03C021E030E0A2CFDF911F
:10062000CF911F910F9108957F928F929F92AF92D9
:10063000BF92CF92DF92EF92FF920F931F93CF93CF
:10064000DF93CDB7DEB72D970FB6F894DEBF0FBEA0
:10065000CDBFE8EDF3E0A281B381109719F08C9142
:1006600081FD2FC2389624E0E033F207A1F7809194
:10067000D703882309F490C0E090AB03F090AC035B
:10068000E114F10409F486C01091A603212F012E74
:10069000000C330B4BE01402F0011124E35DFC4F1E
:1006A00080819181892B09F475C082819381892B86
:1006B00009F470C08085813009F06CC0828193811B
:1006C000A701481B590BCA01181619063CF482E011
:1006D0008093D703E280F38000E004C083E080933E
:1006E000D70301E04BE0429FC001439F900D1124CE
:1006F000FC01E35DFC4F6F01408151816091290352
:1007000070912A0380912B0390912C039701BCD503
:10071000811139C0F601808191819093A803809363
:10072000A703F092AA03E092A9038091AB039091F2
:10073000AC038E199F099093AC038093AB03809117
:10074000270390912803892B51F0E0912703F09122
:10075000280347EA53E060912603812F1995809181
:10076000290390912A03A0912B03B0912C038E0DA5
:100770009F1DA11DB11D8093290390932A03A0936F
:100780002B03B0932C038091D703833019F410927C
:10079000D70306D480E09CC187ECC82E8BE1D82E0D
:1007A000EE24E394F12C27E1A22EB12C8091C0031A
:1007B000882381F38091C00381508093C003772404
:1007C0007394AE01475F5F4F60E770E180E090E0B7
:1007D0000E945826182F81116DC189859A85AB8595
:1007E000BC8580FF64C180910002082E000C990B2B
:1007F000AA0BBB0BAC018230910509F448C08330D1
:10080000910509F462C19C0122513109243031055E
:1008100038F49501281B390B2F3FFFEF3F07C9F52F
:10082000E0910206F091030660819C012A50310993
:100830002430310548F40697970102C0220F331F78
:100840008A95E2F7C90117C042335105B1F043332D
:100850005105A9F044335105A1F04533510599F0F4
:10086000CE978830910578F4A70102C0440F551F38
:100870008A95E2F7CA01809507C087EF05C08BEF24
:1008800003C08DEF01C08EEF8623808328C020E057
:1008900030E0283020F5822F90E0FC013197E730DE
:1008A000F10570F48827E758FF4F8F4F0C945E31A5
:1008B000E8980DC0E9980BC0EA9809C0EB9807C00A
:1008C000EC9805C0ED9803C0EE9801C0EF98F901CF
:1008D000FF27EE0FFF1FEF5FFD4FD182C08289859A
:1008E0009A85AB85BC858E7F89879A87AB87BC87C5
:1008F00029853A854B855C8560E770E180E090E072
:100900000E94A727182F8111D5C07092BF03898537
:100910009A85AB85BC8532E0B695A7959795879566
:100920003A95D1F74C015FE095228114910409F4C6
:10093000C0C019821A821B821C82AE014F5F5F4FBA
:1009400064E870E180E090E00E945826882321F05E
:100950008D8766D48D85A9C069817A818B819C81C0
:100960006093C1037093C2038093C3039093C40345
:10097000840120E030E00093C5031093C603209368
:10098000C7033093C80304E010E020E030E0AE017C
:100990004B5F5F4F0E94FD27182F8F8198859887A6
:1009A0008F83112319F03CD4812F7FC08F819885CC
:1009B0008815990551F08F819885881A990A65E004
:1009C0008616910410F02CD46FC08D81813061F4B3
:1009D0008091C9039091CA03892B09F459C0E09111
:1009E000C903F091CA0346C08D81823061F48091C1
:1009F000CB039091CC03892B09F44AC0E091CB033F
:100A0000F091CC0337C08D81843059F48091CD03AF
:100A10009091CE03892BE1F1E091CD03F091CE03CB
:100A200029C08D81863059F48091D3039091D403ED
:100A3000892B71F1E091D303F091D4031BC08D8118
:100A4000873059F48091CF039091D003892B01F125
:100A5000E091CF03F091D0030DC08D81853021F559
:100A60008091D5039091D603892B91F0E091D50325
:100A7000F091D6036F8178858E8129813A814B81EF
:100A80005C81285F3F4F4F4F5F4F68507109199548
:100A90008091D70381110EC08091BF03882351F04C
:100AA000C7D3882339F001C08AEF182F03C014EF91
:100AB00001C01EEF8091D703811105C0111181CEB5
:100AC00075CE84EF05C0812F03C021E030E0E1CE78
:100AD0002D960FB6F894DEBF0FBECDBFDF91CF913C
:100AE0001F910F91FF90EF90DF90CF90BF90AF904C
:100AF0009F908F907F900895CF92DF92EF92FF9218
:100B00000F931F93CF93DF93CDB7DEB7CC56D109A8
:100B10000FB6F894DEBF0FBECDBF6C01E62EF42EEB
:100B2000890181E0481701F12115310511F484EFA5
:100B30008CC0E2E04E1318C0C901ACD280349105DC
:100B400099F4F8019801205C3F4F919180ED890F55
:100B5000873368F786EC890F873048F397549A31CA
:100B600030F3E217F30789F78FEF8E0D8032F8F636
:100B70002E2D30E040E050E0B601CE01895B9F4F62
:100B80007ED2E7E4F0E0EC0FFD1FEE0DF11D1082C8
:100B90008FEF90E027969FAF8EAF2797A9961FAE55
:100BA000A9972396FFAE2397F3E0FF1220C0F80128
:100BB00080818983843008F0BACF21812A83822FF3
:100BC0008F7E8A3009F0B3CF30E040E050E0B801CA
:100BD0006E5F7F4FCE01039652D2F8018181E3E030
:100BE000F0E0EC0FFD1FE80FF11D108220C0F2E0D5
:100BF000FF120EC0C8014ED29C0121503109203491
:100C0000310508F094CF2E5F3F4F40E050E007C021
:100C100084E0F81209C02EE330E040E050E0B80173
:100C2000CE0101962CD203C0E1E0FE1280CFC12C90
:100C3000D12CE12CF12C00E010E02CE630E0AE01EC
:100C40004F5F5F4F68E281E069D6C459DF4F0FB64E
:100C5000F894DEBF0FBECDBFDF91CF911F910F91F2
:100C6000FF90EF90DF90CF9008951F93CF93DF9385
:100C700000D01F92CDB7DEB7182F54D5811132C0E6
:100C8000812F6CD1182F87FD2CC0AE014F5F5F4FB5
:100C900068E071E082E090E00E945826811121C056
:100CA00081E090E0A0E0B0E0AC01BD0104C0440FE1
:100CB000551F661F771F1A95D2F789819A81AB81DC
:100CC000BC819A01AB01282B392B4A2B5B2B298342
:100CD0003A834B835C8368E071E082E090E00E949D
:100CE000A7275ED10F900F900F900F90DF91CF91BB
:100CF0001F9108950895EDEBF3E083818F5F838367
:100D00000895E0914307F0914407309709F0199452
:100D10000895FC01ED59FF4F808191810895FB01F9
:100D2000EB59FF4F40815181628173812CE632E0A3
:100D3000FC01318320834283538364837583089548
:100D4000CF93DF93EC01E881F9810480F581E02DF8
:100D5000CE011995892B41F0E881F9810680F78150
:100D6000E02DCE011995EFCFDF91CF910895CF936C
:100D7000DF93EC01E881F9810480F581E02D19957C
:100D8000892B39F08D899E89C80FD91F898D90E0F4
:100D900002C08FEF9FEFDF91CF910895CF93DF9344
:100DA0001F92CDB7DEB7DC01ED91FC91008CF18D87
:100DB000E02D41E050E0BE016F5F7F4F19958F3FFE
:100DC000BFEF9B0711F0898190E00F90DF91CF91E9
:100DD00008952F923F924F925F926F927F928F92DF
:100DE0009F92AF92BF92CF92DF92EF92FF920F93BA
:100DF0001F93CF93DF9300D000D0CDB7DEB79C0117
:100E00007A01DC01ED91FC910480F581E02D2D83C8
:100E10003E836B837C8319952D813E816B817C8120
:100E2000009709F480C08C01E816F90608F48701E0
:100E30007B01812C912C54012801612C712C6901BA
:100E4000B1E6CB0ED11CF901B196FA83E983190101
:100E5000F9E12F0E311C84149504A604B70408F0A0
:100E600060C0F90185899689A789B08DAC01BD0163
:100E70004F5F5F4F6F4F7F4F458B568B678B708FE8
:100E8000E80FF91F818DD7018D937D01F6018081D7
:100E90009181019791838083D90155964D915D9100
:100EA0006D917C91589751968D919D910D90BC912B
:100EB000A02D481759076A077B0769F5F901118AC0
:100EC000128A138A148A158A168A178A108E8585C3
:100ED0009685A785B0898D7F85879687A787B08BF4
:100EE0008091D703882349F0B10184852D833E8307
:100EF0000E940B2C2D813E8109C069817A818485F5
:100F00002D833E830E940B2C3E812D812D833E83B9
:100F10008BDB3E812D81BFEF8B1A9B0AAB0ABB0A8C
:100F20009ACFC80102C08FEF9FEF26960FB6F894B4
:100F3000DEBF0FBECDBFDF91CF911F910F91FF900C
:100F4000EF90DF90CF90BF90AF909F908F907F9069
:100F50006F905F904F903F902F900895873080F46E
:100F6000843081F0853081F0863081F0882381F0F3
:100F7000813081F0823081F0833081F08EEF0895EE
:100F80008FEF08958FE0089580E1089582E108953C
:100F900083E0089584E0089585E0089586E008954B
:100FA000CF93DF9300D01F92CDB7DEB78091BE0301
:100FB000882329F08091BE0381508093BE038091E5
:100FC000BE03811154C08091BD03882309F44FC032
:100FD000AE014F5F5F4F60E170E080E090E00E9403
:100FE0005826811145C0898180FDF2CFAE014F5F47
:100FF0005F4F61E070E080E090E00E945826811130
:1010000037C089819A81AB81BC8181FD0CC0AE0162
:101010004F5F5F4F6BE070E080E090E00E945826E9
:10102000882389F025C09C01AD012D7F29833A8357
:101030004B835C8361E070E080E090E00E94A72732
:10104000882329F315C049815A816B817C8140FF37
:101050000FC09A01AB012E7F29833A834B835C83B7
:101060006BE070E080E090E00E94A72701C080E084
:101070000F900F900F900F90DF91CF910895FB018B
:101080006191DC016D93CD01215031094109510974
:10109000B9F70895FC019F01281B390B41914111BB
:1010A000FACFC9010895AF92BF92CF92DF92EF922B
:1010B000FF920F931F93CF93DF931F92CDB7DEB7AD
:1010C0008C017B016A011982892B51F0672B09F091
:1010D00059C0AA24A394B12CCE0101967C0106C06C
:1010E000A12CBB24B3948E010F5F1F4F2091D2041B
:1010F0009091D30480913406882379F08FB7F894C7
:1011000030913406313039F43DB3309335063DB378
:101110003DBB8FBF02C0809335062CBD9DBD60E0F6
:1011200080912D02C2D6C114D104B9F0F80180819A
:101130008EBD00000DB407FEFDCF8EB5F701808394
:10114000F1E0CF1AD108A11003C08FEFE81AF80A16
:10115000B110E9CF0F5F1F4FE6CF61E080912D0204
:10116000A4D680913406882379F09FB7F894209113
:10117000340680913506213019F48DBB9FBF04C021
:101180008FBF02C08AEF01C080E00F90DF91CF9146
:101190001F910F91FF90EF90DF90CF90BF90AF9095
:1011A00008951F920F920FB60F9211240BB60F9253
:1011B0002F933F934F935F936F937F938F939F935F
:1011C000AF93BF93CF93EF93FF93E0913004F091EF
:1011D0003104C08180913204C82380911102C81764
:1011E00049F0C11107C0E0913304F0913404309705
:1011F00009F01995C0931102FF91EF91CF91BF9122
:10120000AF919F918F917F916F915F914F913F919E
:101210002F910F900BBE0F900FBE0F901F9018953F
:1012200060910002062E000C770B880B990BF1C819
:10123000CF93DF9300D01F92CDB7DEB71092BF03DC
:10124000EFDFAE014F5F5F4F60E770E180E090E05D
:101250000E945826811111C089819A81AB81BC817D
:101260009C01AD01226029833A834B835C8360E754
:1012700070E180E090E00E94A7270F900F900F9000
:101280000F90DF91CF9108954F925F926F927F926E
:101290008F929F92AF92BF92CF92DF92EF92FF9286
:1012A0000F931F93CF93C02F611571058105910591
:1012B00031F04115510519F02115310519F4C1110D
:1012C0005EC06DC0890120E030E0C090C503D090C1
:1012D000C603E090C703F090C803C016D106E2062B
:1012E000F30608F45CC0C090C103D090C203E09044
:1012F000C303F090C4036C157D058E059F0508F4AB
:101300004EC06B017C01C00ED11EE21EF31E809008
:10131000C1039090C203A090C303B090C403409057
:10132000C5035090C6036090C7037090C803840C37
:10133000951CA61CB71C8C149D04AE04BF0478F148
:101340000E94FD2781112CC04091C1035091C2031E
:101350006091C3037091C4030091C5031091C6034B
:101360002091C7033091C803400F511F621F731FA4
:101370004C155D056E057F0511F0CC2389F0CF91EA
:101380001F910F91FF90EF90DF90CF90BF90AF90A3
:101390009F908F907F906F905F904F9049CF84EF98
:1013A000CF911F910F91FF90EF90DF90CF90BF9062
:1013B000AF909F908F907F906F905F904F90089527
:1013C000BF92CF92DF92EF92FF920F931F93CF9332
:1013D000DF93CDB7DEB7C456D1090FB6F894DEBFA0
:1013E0000FBECDBF69017A018C32B9F400E024E070
:1013F00030E0AE014F5F5F4FC701B60145DF81119D
:1014000064C1E0914107F0914207309709F45DC152
:10141000BE016F5F7F4F8CE257C18B31B9F400E0A2
:1014200028E030E0AE014F5F5F4FC701B6012CDF0F
:1014300081114BC1E0914107F0914207309709F4C7
:1014400044C1BE016F5F7F4F8BE13EC18630B9F46E
:1014500001E020E330E0AE014F5F5F4FC701B6010E
:1014600013DF811132C1E0914107F09142073097BB
:1014700009F42BC1BE016F5F7F4F86E025C18E301E
:1014800009F423C1823339F58091450790914607CD
:10149000A0914707B091480780359341A105B10558
:1014A00018F420E130E002C024E130E000E0AE01B9
:1014B0004F5F5F4FC701B601E7DE811106C1E091C2
:1014C0004107F0914207309709F4FFC0BE016F5FFA
:1014D0007F4F82E3F9C08F3201F5FE013196BE2EB7
:1014E0001F2FCE018B599F4F1192E817F907E1F793
:1014F00000E024E630E04B2D512FC701B601C4DED9
:101500008111E3C0E0914107F0914207309709F45F
:10151000DCC06B2D712F8FE2D7C08433B1F400E0B3
:1015200024E030E0AE014F5F5F4FC701B601ACDE93
:101530008111CBC0E0914107F0914207309709F447
:10154000C4C060E070E084E3BFC08131E1F4109278
:10155000400700E024E030E0AE014F5F5F4FC7017D
:10156000B60192DE8111B1C0898180933606E09187
:101570004107F0914207309709F4A7C0BE016F5FA1
:101580007F4F81E1A1C08331B9F400E02CE230E06B
:10159000AE014F5F5F4FC701B60176DE811195C086
:1015A000E0914107F0914207309709F48EC0BE01E7
:1015B0006F5F7F4F83E188C08430B9F400E024E09E
:1015C00030E0AE014F5F5F4FC701B6015DDE8111B4
:1015D0007CC0E0914107F0914207309709F475C053
:1015E000BE016F5F7F4F84E06FC08536B9F400E0C5
:1015F00024E030E0AE014F5F5F4FC701B60144DE2B
:10160000811163C0E0914107F0914207309709F4DE
:101610005CC0BE016F5F7F4F85E656C08930B9F46C
:1016200001E024E630E0AE014F5F5F4FC701B60135
:101630002BDE81114AC0E0914107F09142073097BB
:1016400009F443C0BE016F5F7F4F89E03DC08A321D
:10165000B1F401E024E030E0AE014F5F5F4FC7011D
:10166000B60112DE811131C0E0914107F0914207CD
:10167000309759F1BE016F5F7F4F8AE225C08032FB
:1016800021F500E026E030E0AE014F5F5F4FC7017B
:10169000B601FADD811119C02B813C8149815A8143
:1016A000C701B6016A5F7F4F8F4F9F4F01E0ECDDAE
:1016B00081110BC0E0914107F0914207309729F06A
:1016C000BE016F5F7F4F80E21995CC59DF4F0FB697
:1016D000F894DEBF0FBECDBFDF91CF911F910F9168
:1016E000FF90EF90DF90CF90BF900895CF92DF9260
:1016F000EF92FF926B017C01C114D104E104F1046B
:1017000061F061E070E080E090E00E944D1F81E0B8
:10171000C81AD108E108F108EFCFFF90EF90DF90F1
:10172000CF900895AF92CF92DF92EF92FF920F93F6
:101730001F93CF93DF93CDB7DEB728970FB6F894FA
:10174000DEBF0FBECDBF8091BF03811183C08091EA
:10175000BE03882331F08091BE038F5F8093BE0368
:1017600079C08091BD038823B1F31D821E821F8240
:10177000188619821A821B821C82AE014B5F5F4F52
:101780006BE070E080E090E00E94582681115EC01E
:101790008D819E81AF81B88580FF0CC0AE014B5F0B
:1017A0005F4F61E070E080E090E00E94582688235F
:1017B00069F04CC09C01AD0121606BE070E080E0FD
:1017C00090E00E94A727882349F340C08D819E8125
:1017D000AF81B88581FF03C000E010E00CC09C0120
:1017E000AD01226061E070E080E090E00E94A727F8
:1017F000882391F32BC0AE014F5F5F4F6FE070E025
:1018000080E090E00E945826811120C0898182FDED
:101810000CC062E070E080E090E068DF0F5F1F4F77
:101820000530110541F78CEF16C0A12CC12CD12C2D
:10183000760100E010E0980140E050E0BA018FEC42
:101840000E94A1248FEC0E94672485CF882309F48D
:1018500082CF01C080E028960FB6F894DEBF0FBE9D
:10186000CDBFDF91CF911F910F91FF90EF90DF904F
:10187000CF90AF9008950F931F93CF93DF9300D035
:101880001F92CDB7DEB7182F062F4CDF81113DC058
:10189000812F64DB182F87FD37C0AE014F5F5F4F8C
:1018A00060E071E082E090E00E94582681112CC037
:1018B00089819A81AB81BC8141E050E060E070E0B9
:1018C00004C0440F551F661F771F1A95D2F70023D7
:1018D00029F0842B952BA62BB72B08C0409550954B
:1018E0006095709584239523A623B72389839A83D3
:1018F000AB83BC8329813A814B815C8160E071E0DC
:1019000082E090E00E94A7274BDB0F900F900F9092
:101910000F90DF91CF911F910F9108952F923F92D9
:101920004F925F926F927F928F929F92AF92BF92EF
:10193000CF92DF92EF92FF920F931F93CF93DF939B
:10194000CDB7DEB763970FB6F894DEBF0FBECDBF3D
:10195000582E3A0149015801862F8F778E875D8670
:1019600088E090E0988B8F878F859889012B29F0EC
:101970008E0D9F1D8C0D9D1D02C0820F931F988B95
:101980008F876B8BCFDE6B8981113CC11D821E82DC
:101990001F8218861A8A198A19861A861B861C863F
:1019A00089859A85AB85BC85852989879A87AB8788
:1019B000BC8789859A85AB85BC85962B89879A8754
:1019C000AB87BC872F85388949855A856B857C858F
:1019D000C901A0E0B0E0DC0199278827842B952B72
:1019E000A62BB72B89879A87AB87BC8729853A8531
:1019F0004B855C856CE870E180E090E00E94A72751
:101A00008111F7C019861A861B861C8689859A85DE
:101A1000AB85BC85826089879A87AB87BC8729851F
:101A20003A854B855C8568E770E180E090E00E9434
:101A3000A7278111DEC01D821E821F8218861A8A86
:101A4000198A89899A89883E934058F4AE01475F84
:101A50005F4F68E770E180E090E00E94582688239D
:101A600049F08D819E81AF81B885892B8A2B8B2B84
:101A700049F5BCC089899A89843F914038F08989A9
:101A80009A8961E070E080E090E030DE89859A8597
:101A9000AB85BC8581FD10C0AE014B5F5F4F60E040
:101AA00074E085E190E00E9458268823D1F21D82DF
:101AB0001E821F8218869DC089899A8901969A8BF9
:101AC000898BBFCF8D819E81AF81B88589839A83B1
:101AD000AB83BC838F859889988B8F8769817A8146
:101AE0008B819C8108E010E020E030E0AE01435F94
:101AF0005F4F0E94AE2781117CC089819A81AB81A2
:101B0000BC810896A11DB11D89839A83AB83BC83D8
:101B100061147104D1F01401412C512C69817A8136
:101B20008B819C8192018101A3010E94AE278111CA
:101B300060C089819A81AB81BC81820D931DA41DF7
:101B4000B51D89839A83AB83BC83A114B10441F191
:101B500089819A81AB81BC81C818D9088C0D9D1DE3
:101B6000A11DB11D89839A83AB83BC832701612C9E
:101B7000712C69817A818B819C8193018201A501FD
:101B80000E94AE27811135C089819A81AB81BC81C9
:101B9000840D951DA61DB71D89839A83AB83BC83D5
:101BA0008D819E81AF81B88522E0880F991FAA1F81
:101BB000BB1F2A95D1F789879A87AB87BC87898510
:101BC0009A85AB85BC85826089879A87AB87BC87FD
:101BD00029853A854B855C856CE670E180E090E074
:101BE0000E94A727811105C0DBD90CC0D9D98DEF80
:101BF00009C09091BE03992329F09091BE039150A2
:101C00009093BE0363960FB6F894DEBF0FBECDBFB0
:101C1000DF91CF911F910F91FF90EF90DF90CF90C8
:101C2000BF90AF909F908F907F906F905F904F90FC
:101C30003F902F90089560E080912F0236D164E6A6
:101C400070E080E090E052DD61E080912F022DD1C4
:101C500064E670E080E090E049CDCF92DF92EF92B1
:101C6000FF920F931F93CF93DF936C017A018B0147
:101C7000C0E0D0E0CE15DF0589F0D8016D918D016F
:101C8000D601ED91FC910190F081E02DC6011995EE
:101C9000892B11F47E0102C02196ECCFC701DF91A0
:101CA000CF911F910F91FF90EF90DF90CF9008950B
:101CB0004F925F926F927F92EF92FF920F931F93DA
:101CC000CF93DF93CDB7DEB7A1970FB6F894DEBF01
:101CD0000FBECDBF7C01FA01CB0119A2223008F45E
:101CE0002AE08E010F5D1F4F422E512C612C712C6A
:101CF000BF01A30192010E944737F901CA010150B7
:101D000011096A3014F4605D01C0695CD8016C93FC
:101D1000232B242B252B61F7B801C7010E948D1BB3
:101D2000A1960FB6F894DEBF0FBECDBFDF91CF9165
:101D30001F910F91FF90EF907F906F905F904F9069
:101D400008958F929F92AF92BF92CF92DF92EF92BF
:101D5000FF920F931F93CF93DF937C01EB016C01F4
:101D600082E0C80ED11C4701E5E08E0E911C00E018
:101D700010E0F60141916F0150E060E070E02AE070
:101D8000CE0196DF5C01E881F9810190F081E02DC0
:101D90006EE2CE0119958A0D9B1D080F191FC814FC
:101DA000D90439F7F701458150E060E070E02AE09E
:101DB000CE017EDF800F911FDF91CF911F910F9198
:101DC000FF90EF90DF90CF90BF90AF909F908F905B
:101DD00008950E94033285E394E00E94D82921E00F
:101DE000892B09F420E0822F08951F920F920FB6DD
:101DF0000F9211240BB60F922F933F934F935F9343
:101E00006F937F938F939F93AF93BF93EF93FF93C2
:101E100085E394E00E94D92CFF91EF91BF91AF919F
:101E20009F918F917F916F915F914F913F912F91F2
:101E30000F900BBE0F900FBE0F901F9018951F9222
:101E40000F920FB60F9211240BB60F922F938F9310
:101E50009F93EF93FF93E0914504F09146048081B6
:101E6000E0914B04F0914C0482FD12C0908180916E
:101E70004E048F5F8F7320914F04821751F0E091D1
:101E80004E04F0E0EB5CFB4F958F80934E0401C055
:101E90008081FF91EF919F918F912F910F900BBEB9
:101EA0000F900FBE0F901F901895362F90E0FC01F9
:101EB000EA5DFD4F4491FC01EA53FE4F2491FC0181
:101EC000E058FE4F9491992309F46BC0442309F420
:101ED00055C050E0FA013197E231F10508F04EC0EB
:101EE0008827E058FF4F8F4F0C945E31809180001F
:101EF0008F7707C0809180008F7D03C08091800024
:101F0000877F809380003AC084B58F7702C084B504
:101F10008F7D84BD33C08091B0008F7703C08091E6
:101F2000B0008F7D8093B00029C0809190008F77A2
:101F300007C0809190008F7D03C080919000877FC3
:101F4000809390001BC08091A0008F7707C0809184
:101F5000A0008F7D03C08091A000877F8093A000A8
:101F60000DC0809120018F7707C0809120018F7D67
:101F700003C080912001877F80932001E92FF0E04A
:101F8000EE0FFF1FE45FFD4FA591B4918FB7F8945A
:101F9000EC91311103C020952E2301C02E2B2C93E0
:101FA0008FBF0895CF93DF9390E0FC01EA53FE4F7B
:101FB0002491FC01E058FE4F8491882361F190E068
:101FC000880F991FFC01E459FD4FC591D491FC0184
:101FD000E45FFD4FA591B491611109C09FB7F894DA
:101FE0008881209582238883EC912E230BC0623058
:101FF00061F49FB7F8943881822F8095832388837A
:10200000EC912E2B2C939FBF06C08FB7F894E881DC
:102010002E2B28838FBFDF91CF910895BF92CF924F
:10202000DF92EF92FF920F931F93CF93DF93CDB781
:10203000DEB7EA970FB6F894DEBF0FBECDBF1092A1
:10204000440710924307F0902F0261E08F2DAADF22
:1020500061E08F2D2ADF60E080910002A3DF809194
:102060002E0287FD02C062E09DDFE5DD84EA98E193
:10207000909342078093410710924007FFB6F8946F
:1020800080913E07811123C0E5EBF1E08491EBEFF5
:10209000F1E09491E82FF0E0EE0FFF1FE459FD4FBF
:1020A000A591B491EC91E92319F461E085E3FDDE9B
:1020B00061E085E377DF8CB580618CBD8CB5806491
:1020C0008CBD61E084E36EDF61E083E36BDF8091D0
:1020D0003E078F5F80933E07FFBEF0902D0261E0C8
:1020E0008F2D60DF61E08F2DE0DEA5DD61E070E027
:1020F00080E090E0FBDA1FA218A619A61AA610929B
:102100003F077E0127E2E20EF11CA70164E278EEB0
:1021100080E090E00E94C325882329F080913F074A
:10212000882371F024C081E080933F07A70164E217
:1021300078EE80E090E00E94C3258111EFCF39C096
:102140008FA198A5A9A5BAA583789C01AD012065AA
:102150002FA338A749A75AA764E278EE80E090E061
:102160000E943327882329F181E080933F07AE0145
:10217000415D5F4F60E070E180E090E00E94C32528
:102180008823B9F0AE014F5F5F4F64E278EE80E0E4
:1021900090E00E94C32589819A81AB81BC818F78B0
:1021A0009C01AD01206564E278EE80E090E00E9441
:1021B000A727AE014F5F5F4F64E170E180E090E0E0
:1021C0000E94C32589819A81AB81BC81B7FD06C07D
:1021D00061E070E080E090E089DAEBCFAE014F5F24
:1021E0005F4F6CEB77E082E090E00E94C32589812D
:1021F00080FF1AC022E533E1A9016CE870E180E0BC
:1022000090E00E944C280E944D28DC01CB019F7079
:10221000AA27BB27803A9340A105B10548F162E0A7
:1022200070E080E090E027C0C12CD12C61E070E02C
:1022300080E090E05BDAAE014F5F5F4F6CE070E0F2
:10224000CB010E94C32589819A81AB81BC8150ED6D
:10225000C51657E0D50619F47BEFB72E63C06FEFB4
:10226000C61AD60A8E39904DAD4AB041F9F6C2CFA2
:1022700060E070E0CB010E94F82821E63FE242E5F1
:102280005FEE6CE070E0CB010E944C288CE890E19E
:10229000A0E0B0E08FAB98AFA9AFBAAF86E396E20B
:1022A000A3E5B2E08BAB9CABADABBEABC12CD12CEC
:1022B00080E090E0DC014BA95CA96DA97EA94817DC
:1022C00059076A077B07D9F062E070E080E090E090
:1022D0000DDA6FA978AD89AD9AADAE014F5F5F4F52
:1022E0000E94C32589819A81AB81BC81EFEFCE1A10
:1022F000DE0AF0EDCF16F7E0DF06E9F6ADCF8BA9E9
:102300009CA9ADA9BEA986339642A345B24069F403
:1023100020E030E0A9016CE870E180E090E00E94EC
:102320004C2803C00E94741A6EC019821A821B8244
:102330001C82AE014F5F5F4F68E074E180E090E087
:102340000E945826B82E811115C089819A81AB81CF
:10235000BC819C01AD01316029833A834B835C834E
:1023600068E074E180E090E00E94A727B82E8823FF
:1023700009F47BC1B110D6CFEDEBF3E0119243E04D
:10238000E73DF407D9F78BE796E0909344078093F5
:10239000430760910002062E000C770B880B990B07
:1023A0000E9409028AE796E09093D2038093D103BA
:1023B00080EE99E09093CA038093C9031FA618AAE0
:1023C00019AA1AAA88E0D7011D928A95E9F7FE0199
:1023D00031966F01D6011D926D01AE15BF05D1F783
:1023E000AE01415D5F4F68E070E08CE090E00E94DC
:1023F0005826B82E882379F0E4EFBE1609F454C1AC
:10240000BB2009F474C0E3EFBE1609F470C060E0AD
:1024100086E031DA14C18FA598A9A9A9BAA90097B5
:10242000A105B10509F440C1BC01CD01836008E0FC
:1024300010E020E030E0A6010E94FD27B82E8111B7
:10244000DBCF8BA59CA5ADA5BEA5AA27BB278FA7D3
:1024500098ABA9ABBAAB0097A105B10509F424C1AB
:10246000BC01CD01836006E210E020E030E0AE0167
:102470004F5F5F4F0E94FD27B82E8111BDCF8F8126
:102480008F702D8190E0FC01F22B9F018E81F0E195
:102490008F9FC00111249927822B932BAC0160E000
:1024A00070E0409345075093460760934707709349
:1024B00048072A852F70488530E0B901742BAB019D
:1024C000398570E1379F900111243327242B352B58
:1024D000009709F4E9C02115310509F4E5C0233559
:1024E000334108F04EC18235934108F44AC18091CE
:1024F0004907811114C0EDE2F3E0119223E0E63ABE
:10250000F207D9F788EC9BE19093CC038093CB033F
:1025100081E08093490710923D0710923C0788E5BF
:10252000E8EDF3E0DF011D928A95E9F78EE891E28C
:1025300090932803809327038FE694E190933B07C1
:1025400080933A0781E090E090933F0580933E05A9
:102550001092EB041092EA041092D4041092D50465
:102560001092D6041092D7041092D8041092D90475
:102570001092DA041092DB041092DC041092DD0455
:102580001092DE041092DF049093E1048093E00443
:102590001092E2041092E3041092E4041092E50415
:1025A0001092E7041092E6048EE0E0E3F5E0DF012C
:1025B0001D928A95E9F78091450790914607A09171
:1025C0004707B091480780359341A105B105B0F0A8
:1025D0008FEF93E0A0E0B0E089839A83AB83BC8364
:1025E000C12CD12CE12CF12C00E010E024E030E0F3
:1025F000AE014F5F5F4F65E085E090D961E084E018
:102600003AD961E085E037D961E086E034D984E0E9
:102610000E94350685E00E94350686E00E94350658
:1026200061E081E028D961E082E025D961E083E0C2
:1026300022D981E00E94350682E00E94350683E0BF
:102640000E9435068B2DBB0C990BEA960FB6F894B9
:10265000DEBF0FBECDBFDF91CF911F910F91FF90D5
:10266000EF90DF90CF90BF900895AE014F5F5F4F26
:1026700060E07AE180E090E00E945826B82E811157
:1026800079CE89819A81AB81BC819C01AD01416089
:1026900029833A834B835C8360E07AE180E090E0B9
:1026A0000E94A727B82E66CE1FA218A619A61AA6A2
:1026B000A7016CEA77E082E090E00E945826B82EED
:1026C0008FA198A5A9A5BAA5833C914CAD45B74D5E
:1026D00041F4A70168E470E180E090E00E94582690
:1026E000B82E8FA198A5A9A5BAA5AD016627772711
:1026F00058879A0154E0369527955A95E1F72F703F
:1027000029874F704A879D839C0164E03695279501
:102710006A95E1F72F702E838F708F830E944D286A
:102720008F818F702D8190E0922B2E8140E1249F2C
:10273000900111243327AC01422B532BCA01A0E096
:10274000B0E08093450790934607A0934707B09366
:1027500048078A858F70288590E0BC01722B9B0109
:10276000998570E1979FC00111249927822B932BA3
:102770008335934110F093EFB92E4235534108F061
:102780003FCE83EFB82EB3CECF92DF92EF92FF927F
:102790000F931F93CF93DF93CDB7DEB728970FB674
:1027A000F894DEBF0FBECDBF87FD2EC04115510589
:1027B00059F19BE08902F0011124E35DFC4F908503
:1027C000913011F5DA016E838D838D919D910D907D
:1027D000BC91A02D89839A83AB83BC83848195812E
:1027E00098878F83C12CD12CE12CF12C00E010E0D4
:1027F00028E030E0AE014F5F5F4F6FE482E08ED89B
:10280000882319F087EF01C08AEF28960FB6F89455
:10281000DEBF0FBECDBFDF91CF911F910F91FF9013
:10282000EF90DF90CF900895CF93DF931F92CDB7B5
:10283000DEB76983DC01ED91FC910280F381E02D2C
:1028400041E050E0BE016F5F7F4F19950F90DF911F
:10285000CF9108950F931F93FB010281138124816F
:102860003581FC01EB54FF4F0083118322833383B6
:1028700032975183408332971182108281E090E039
:102880001F910F9108950F931F93CF93DF9300D063
:1028900000D0CDB7DEB7DC01ED91FC9100A0F1A135
:1028A000E02D2CE632E03A832983DB0112960D916C
:1028B0001D912D913C9115970B831C832D833E8395
:1028C000BE016F5F7F4F199526960FB6F894DEBF55
:1028D0000FBECDBFDF91CF911F910F91089540930F
:1028E000E2045093E3046093E4047093E5040895D4
:1028F000DC01ED91FC91008CF18DE02D1994CF92CB
:10290000DF92EF92FF920F931F93CF93DF93EC012F
:102910000E9414038C858F3F09F4AAC07E0161E6F2
:10292000E60EF11CF70180819181009709F0A2C0A9
:102930008D899E89AF89B88D49895A896B897C892F
:10294000481759076A077B0709F492C0AC01BD011B
:102950004F5F5F4F6F4F7F4F4C0F5D1FFA01418DEF
:102960009E01280F391FF901218D30E0322F2227D7
:10297000240F311DF701318320838E010D591F4F24
:10298000AC01BD014E5F5F4F6F4F7F4F4C0F5D1F1E
:10299000FA01418D50E0542F44276C017D01F3E092
:1029A000CF0ED11CE11CF11CCC0EDD1EF601618D99
:1029B000460F511DF801518340830E5F1F4FAC013C
:1029C000BD014C5F5F4F6F4F7F4F4C0F5D1FFA0192
:1029D000418D50E060E070E0F42EEE24DD24CC2444
:1029E000AC01BD014B5F5F4F6F4F7F4F4C0F5D1FC1
:1029F000FA01518D452F50E060E070E0BA01552793
:102A000044274C0D5D1D6E1D7F1D6C017D01F7E09F
:102A1000CF0ED11CE11CF11CCC0EDD1EF601F18C99
:102A20004F0D511D611D711D6C017D01F6E0CF0E32
:102A3000D11CE11CF11CCC0EDD1EF601C18CD12C89
:102A4000E12CF12CFE2CED2CDC2CCC244C0D5D1D4E
:102A50006E1D7F1DF8014083518362837383089646
:102A6000A11DB11D8D8B9E8BAF8BB88FC90102C08C
:102A700080E090E0DF91CF911F910F91FF90EF9058
:102A8000DF90CF900895CF93DF93EC010E94140361
:102A90008C858F3F29F0CF59DF4F8881998102C003
:102AA00080E090E0DF91CF9108950F931F93CF9333
:102AB000DF93EA018C010F541F4FF801208131810F
:102AC000420F531F4934510520F0C8E4D0E0C21B27
:102AD000D30B27593F4FAE01820F931F0E9407323D
:102AE000F801808191818C0F9D1F91838083CE019D
:102AF000DF91CF911F910F9108958F929F92AF9286
:102B0000BF92CF92DF92EF92FF920F931F93CF93DA
:102B1000DF93CDB7DEB760970FB6F894DEBF0FBE78
:102B2000CDBF6C0160E085E00E943B0C60E082E07C
:102B30000E943B0CF601ED54FF4F2081318132277A
:102B400023273227329680809180A280B3803497E9
:102B5000E080F180860107591F4FF601848587FFC9
:102B60000BC061E085E00E943B0C61E082E00E94C6
:102B70003B0C80E090E056C00115110591F3F9E798
:102B8000EF16F5E0FF0668F7682F082E000C770BAC
:102B90009BE08902F0011124E35DFC4F90859130A8
:102BA00001F790859923E9F2FE013196AF01DE012C
:102BB00051961192EA17FB07E1F78983FC82EB82B9
:102BC0008BE0869FF001879FF00D1124E35DFC4FA1
:102BD000848195819E878D8782E090E09E838D839E
:102BE00038872F8389869A86AB86BC8694E4C92E63
:102BF000D12C20E130E067EC0E948E0C811103C0E3
:102C000080E090E002C082EF9FEF892B09F0A9CF0E
:102C100061E085E00E943B0C61E082E00E943B0C99
:102C200081E090E060960FB6F894DEBF0FBECDBF96
:102C3000DF91CF911F910F91FF90EF90DF90CF9098
:102C4000BF90AF909F908F9008954F925F926F9238
:102C50007F928F929F92AF92BF92CF92DF92EF922C
:102C6000FF920F931F93CF93DF93CDB7DEB72C97CF
:102C70000FB6F894DEBF0FBECDBF5C013B014A0129
:102C80001B821C821D821E82FB0120E080E090E0FE
:102C90006AE03191332319F140ED430F4A3080F45B
:102CA000689FA001699F500D1124CA01C097830F2E
:102CB000911D37FD9A958F3F910559F350F313C03D
:102CC0003E3289F4233079F0A3E0B0E0AC0FBD1FB1
:102CD000A20FB11D8C932F5F80E090E0DACF2330FC
:102CE00011F48E8359C060E085E00E943B0C60E0E7
:102CF00082E00E943B0C1092E2041092E3041092D6
:102D0000E4041092E504C3010E944A08813408F0EB
:102D10005CC09C0133272F5F3F4FC12CD12CE12C8D
:102D2000F12C00E010E0A3016AE482E00E948E0C26
:102D300087FD4BC00E94851F2B013C018091E2045E
:102D40009091E304A091E404B091E504892B8A2BCF
:102D50008B2B09F443C061E085E00E943B0C61E0ED
:102D600082E00E943B0C8091E2049091E304A091E8
:102D7000E404B091E5040097A105B10509F43FC052
:102D80008B839C83AD83BE831092E2041092E30494
:102D90001092E4041092E504D501ED91FC910088B5
:102DA000F189E02D8CE692E098878F838B819C815E
:102DB000AD81BE8189879A87AB87BC87A401BE019C
:102DC000695F7F4FC50119951CC061E085E00E94D5
:102DD0003B0C61E082E00E943B0C11C00E94851F09
:102DE000DC01CB0184199509A609B70980329E44FC
:102DF000A105B10508F0AFCF0E9414039FCF80E07A
:102E000090E02C960FB6F894DEBF0FBECDBFDF91D9
:102E1000CF911F910F91FF90EF90DF90CF90BF90D7
:102E2000AF909F908F907F906F905F904F9008959C
:102E3000CF93DF93FC01848587FD13C0EF0198E0F9
:102E40008902F0011124E852FC4F1382128215828C
:102E5000148217821682118210820E9433218FEF12
:102E60008C87DF91CF9108950F931F93CF93DF93BA
:102E700000D01F92CDB7DEB78C01FB018281938118
:102E8000A481B58189839A83AB83BC83D801ED91FA
:102E9000FC910484F585E02DBA01C80119958823B9
:102EA00051F024E030E0AE014F5F5F4F61E0F80188
:102EB00084856ADC81E00F900F900F900F90DF9176
:102EC000CF911F910F9108958F929F92AF92BF92D1
:102ED000CF92DF92EF92FF920F931F93CF93DF93E6
:102EE000CDB7DEB7A0970FB6F894DEBF0FBECDBF4B
:102EF000FC011D8E1E8E1F8E18A215861686178643
:102F0000108A118A128A138A148A158A168A178AD5
:102F1000108EDC01AF59BF4F11961C921E92129673
:102F200011961C921E9212961D921D921D921C9239
:102F30001397A45BBF4F1D921C9282E090E09A838E
:102F400089837627672776277C836B831D821E8281
:102F50001F82188694E080914E07A0914E072BE0C7
:102F6000A29FD0011124BD0166587C4F20914E07CD
:102F700030E02F5F3F4F2370332720934E07DB0154
:102F800018962C91211108C09B01895F87FD35C0DF
:102F9000AB01455F5F4F04C09150E9F68FEF2DC044
:102FA000D9011D929D01A417B507D1F791E0DB016E
:102FB00018969C9320913C0730913D072F5F3F4F1F
:102FC00030933D0720933C0720913C0730913D070B
:102FD000232B51F420913C0730913D072F5F3F4F49
:102FE00030933D0720933C0720913C0730913D07EB
:102FF000DB0115963C932E931497848787FD81C03F
:103000005F01B8E08B02F0011124E852FC4F9501FA
:10301000235F3F4F338322832C5F3F4F35832483CD
:103020002C5F3F4F378326832C5F3F4F31832083B4
:1030300020E030E0AE01435E5F4F60E0A5DBF501CC
:10304000848587FD56C0082F082E000C110B2BE03D
:103050008202F0011124E35DFC4F908491E099120B
:1030600048C0918590FF03C024E5822E02C091E400
:10307000892E898F28E030E040E050E0BE016F5F8C
:103080007F4FCE0141960E943F088BE0809FF00168
:10309000819FF00D1124E35DFC4F848195819C8F0D
:1030A0008B8FC12CD12CE12CF12C00E010E02CE016
:1030B00030E0AE014F5E5F4F682D82E00E948E0CC3
:1030C000811117C022D76B017C01D5011D968C910F
:1030D00082FD19C01AD7DC01CB018C199D09AE09FC
:1030E000BF09803D9740A105B10568F40E94140313
:1030F000ECCFD5011C968C910E9433218FEFF50106
:103100008487912C0DC0F50185859685A785B089AA
:1031100082FFEFCF8B7FF50185879687A787B08BDE
:10312000892DA0960FB6F894DEBF0FBECDBFDF91FC
:10313000CF911F910F91FF90EF90DF90CF90BF90B4
:10314000AF909F908F9008950F931F93CF93DF932D
:10315000EB01833109F43EC1E8F4863009F480C103
:1031600090F4843009F0BBC18881082E000C990BC3
:10317000AA0BBB0B8093E2049093E304A093E404B6
:10318000B093E504ACC1893009F4C6C0813109F4BB
:103190001CC1A5C18A3259F020F48B3109F483C1D6
:1031A0009EC18C3259F0823309F47FC098C1888166
:1031B000882309F494C186E090E01FC088818130A3
:1031C00009F58091E8049091E9048130910581F43A
:1031D0008091E0049091E104892B09F080C183E0A3
:1031E00090E09093EB048093EA0460E084E057C0A1
:1031F000039709F074C188E090E09093EB0480930A
:10320000EA046DC181116BC18091E8049091E904D9
:1032100081309105B1F586E090E09093EB048093C6
:10322000EA048091E0049091E104892BC1F01092AE
:10323000D4041092D5041092D6041092D7041092A0
:10324000D8041092D9041092DA041092DB04109280
:10325000DC041092DD041092DE041092DF04C0E35F
:10326000D5E089919991009739F0DC01ED91FC91BD
:103270000288F389E02D1995B5E0CE33DB0789F795
:1032800008C0039731F487E090E09093EB048093BB
:10329000EA0461E084E00E943B0C61E081E0DF91A0
:1032A000CF911F910F910C943B0C8091E804909169
:1032B000E904019709F013C188819981AA81BB8132
:1032C0008093D4049093D504A093D604B093D704EC
:1032D0008C859D85AE85BF858093D8049093D90455
:1032E000A093DA04B093DB048C819D81AE81BF8111
:1032F0008093DC049093DD04A093DE04B093DF049C
:1033000083E090E09093EB048093EA0460E084E033
:103310000E943B0C60E0C2CFFB01ED59FF4F808162
:10332000811147C081E2EFE0F5E0DF011D928A954F
:10333000E9F7FB0101900020E9F73197AF01461B47
:10334000570B8FE095E00E94073281E090E0909368
:10335000E9048093E8041092D4041092D5041092EA
:10336000D6041092D7041092D8041092D904109267
:10337000DA041092DB041092DC041092DD04109247
:10338000DE041092DF04FE0101900020E9F731977E
:10339000BF016C1B7D0B9E012F5D3F4FFE01EE595F
:1033A000FF4F4081CE01DF91CF911F910F910C947F
:1033B0007C058BE090E09093EB048093EA04DF912E
:1033C000CF911F910F910C941D2A8881882309F4B5
:1033D00086C033C08B01065F1F4FF80101900020AB
:1033E000E9F73197AF01401B510B81E2ECEEF4E0BD
:1033F000DF011D928A95E9F74115510521F0B801C9
:10340000CF010E9407328091E6049091E704892B56
:10341000B9F48981082E000C990BAA0BBB0B809381
:10342000E2049093E304A093E404B093E5048A815A
:1034300080930D058B8180930E0582E090E0DDCEB8
:10344000F80180E090E02291A091E604B091E704B9
:10345000A80FB91F2C93019686309105A1F7D9CFFB
:103460008091E6049091E704892BA1F0DB019C9602
:1034700080E090E02E91E091E604F091E704E80FFF
:10348000F91F2083019686309105A1F71092E70479
:103490001092E604BE018FE095E0DF91CF911F917D
:1034A0000F910C9410324091E2045091E30460912A
:1034B000E4047091E504411551056105710579F049
:1034C00088E0FE01DA0101900D928A95E1F71092F1
:1034D000E2041092E3041092E4041092E504DF91F8
:1034E000CF911F910F9108959FB7F89480913E0757
:1034F000882319F0815080933E0780913E07811107
:1035000005C08CB58F7B8CBD109234069FBF08958B
:103510001F920F920FB60F9211240BB60F922F939A
:103520003F934F935F936F937F938F939F93AF934B
:10353000BF93EF93FF93E0E0F0E01995FF91EF91D7
:10354000BF91AF919F918F917F916F915F914F91BB
:103550003F912F910F900BBE0F900FBE0F901F90B9
:103560001895CF92DF92EF92FF92CF93DF93EB010A
:10357000FC01C084D184E284F38420E030E0A9011E
:10358000C701B6010E94FF3118162CF4BE0185E078
:10359000BBD360E014C020E030E0A901C701B60150
:1035A0000E941F3687FF06C0BE0186E0ADD360E0F3
:1035B00085E006C061E085E00E94550F61E086E08D
:1035C000DF91CF91FF90EF90DF90CF900C94550F4B
:1035D000CF92DF92EF92FF92CF93DF93EB01FC014A
:1035E000C480D580E680F78020E030E0A901C701E3
:1035F000B6010E94FF3118162CF4BE0183E084D37B
:1036000060E014C020E030E0A901C701B6010E94CB
:103610001F3687FF06C0BE0187E076D360E083E0F7
:1036200006C061E083E00E94550F61E087E0DF9112
:10363000CF91FF90EF90DF90CF900C94550FCF92E9
:10364000DF92EF92FF92CF93DF93EB01FC01C080FA
:10365000D180E280F38020E030E0A901C701B6010B
:103660000E94FF3118162CF4BE0182E04DD360E0B9
:1036700014C020E030E0A901C701B6010E941F3646
:1036800087FF06C0BE0188E03FD360E082E006C04D
:1036900061E082E00E94550F61E088E0DF91CF9108
:1036A000FF90EF90DF90CF900C94550F61E082E097
:1036B0000E94550F61E088E00E94550F61E083E0B1
:1036C0000E94550F61E087E00E94550F61E085E0A0
:1036D0000E94550F61E086E00C94550FCF93DF9365
:1036E000EC0161E082E00E94D20F61E088E00E947C
:1036F000D20F61E083E00E94D20F61E087E00E9478
:10370000D20F61E085E00E94D20F61E086E00E9466
:10371000D20FCE01DF91CF91C9CF6115710579F03C
:10372000FB0101900020E9F73197AF01461B570BD1
:10373000DC01ED91FC910280F381E02D199480E091
:1037400090E008953FB7F8948091570790915807FB
:10375000A0915907B0915A0726B5A89B05C02F3FE5
:1037600019F00196A11DB11D3FBFBA2FA92F982FA7
:103770008827820F911DA11DB11DBC01CD0142E022
:10378000660F771F881F991F4A95D1F708950895EE
:103790004F925F926F927F928F929F92AF92BF9261
:1037A000CF92DF92EF92FF920F931F93CF93DF930D
:1037B000CDB7DEB7C455D1090FB6F894DEBF0FBE42
:1037C000CDBF3B0149015A01813411F0843501F527
:1037D00000E024E030E0AE014F5F5F4FC501B4016F
:1037E0000E944409811178C28A8126968FAF26975C
:1037F0008091270390912803892B09F46DC2E091F1
:103800002703F0912803AE014B5B5F4F61E021C0BD
:10381000823411F500E024E030E0AE014F5F5F4FED
:10382000C501B4010E944409811156C28A812696BD
:103830008FAF26978091270390912803892B09F455
:103840004BC2E0912703F0912803AE014B5B5F4F21
:1038500062E08981199540C2833409F081C000E09B
:103860002CE030E0AE014B5B5F4FC501B4010E941C
:103870004409811131C22F968FAD2F9787FD48C023
:10388000482F082E000C550B2E962FAD2E973BE09F
:103890002303F0011124E35DFC4F9185349FF00177
:1038A000359FF00D1124E35DFC4F918791E09087E7
:1038B00061962EAD3FAD619728503109378326833D
:1038C00020913C0730913D072F5F3F4F30933D07DC
:1038D00020933C0720913C0730913D07232B51F466
:1038E00020913C0730913D072F5F3F4F30933D07BC
:1038F00020933C0720913C0730913D079BE0949F2B
:10390000F001959FF00D1124E35DFC4F3583248376
:10391000898382E090E09B838A8329968EAD9FAD58
:1039200029979D838C832D968CAD9DADAEADBFAD9B
:103930002D978E839F83A887B987809127039091C5
:103940002803892B09F4C8C1E0912703F0912803CB
:10395000AE014F5F5F4F64E02E968FAD2E977ACF0A
:10396000843411F08B3491F500E024E030E0AE01B6
:103970004F5F5F4FC501B4010E9444098111ACC182
:10398000898126968FAF26979A8127969FAF279792
:1039900091110CC02B813C81285031099BE0890298
:1039A000F0011124E35DFC4F378326832091270328
:1039B00030912803232B09F48FC1E0912703F09164
:1039C0002803AE014B5B5F4F65E044CF8A3409F5B5
:1039D00000E024E430E0AE014F5F5F4FC501B40169
:1039E0000E944409811178C180913A0790913B0768
:1039F000892B09F471C1E0913A07F0913B072596B4
:103A00004CAD5DAD6EAD7FAD2597CE01019619959C
:103A100063C1863429F0883431F08D3409F0FCC05C
:103A200096E0C92E02C089E0C82E00E020E130E017
:103A3000AE014B5B5F4FC501B4010E944409811187
:103A40004BC16296DFAC629765962EAD3FAD659730
:103A50004D2C0D2C000C5508ED2DFBE0EF028001E4
:103A60001124035D1C4FF80112862F96EEACFFACBB
:103A70002F9761964EAD5FAD619729968EAD9FAD44
:103A800029979A8789872D968CAD9DADAEADBFAD38
:103A90002D978B879C87AD87BE878481958128175A
:103AA000390709F0B1C01E141F040CF098C0E614C9
:103AB000F7040CF094C0E114F10409F40DC1808105
:103AC0009181892B09F408C182819381892B09F4A2
:103AD00003C17084F1E07F12FFC0840E951EA11C0B
:103AE000B11C8092290390922A03A0922B03B092DA
:103AF0002C0326E130E040E050E0BE016F5F7F4FD5
:103B000087EA93E00E943F08F092AC03E092AB0397
:103B1000F801828193819701281B390BC90118167E
:103B2000190654F4E280F3807092D703D092A60372
:103B3000C092260300E001C001E02BE0249DC001FB
:103B4000259D900D1124FC01E35DFC4F5F01408138
:103B500051816091290370912A0380912B039091E8
:103B60002C0397010E9444098111B6C0F5018081A0
:103B700091819093A8038093A703F092AA03E09207
:103B8000A9038091AB039091AC038E199F09909388
:103B9000AC038093AB038091270390912803892B7A
:103BA00049F0E0912703F091280347EA53E06C2D98
:103BB0008D2D19958091290390912A03A0912B03B3
:103BC000B0912C038E0D9F1DA11DB11D8093290363
:103BD00090932A03A0932B03B0932C037DC0FC8207
:103BE000EB821A8219828091270390912803892BF6
:103BF00009F472C0E0912703F0912803AE014F5FF2
:103C00005F4F6C2D8D2D26CEF1E16F16710408F4F7
:103C100063C00E94180960C0853421F0873421F008
:103C20008C3491F517E001C018E000E028E030E0A6
:103C3000AE014F5F5F4FC501B4010E94440981117D
:103C40004BC089814D815E812B813C8127963FAF9E
:103C50002EAF27972BE08202F0011124E35DFC4F89
:103C60002481358142175307B9F5209127033091FC
:103C70002803232B89F1E0912703F0912803AE015B
:103C80004B5B5F4F612FE6CD823531F501E024E1DA
:103C900030E0AE014F5F5F4FC501B4010E9444099F
:103CA00081111AC08D819E81909351078093500796
:103CB0008091500790915107892B71F0E091500746
:103CC000F091510729853A854B855C8569817A8118
:103CD0008B819C8109891995CC5ADF4F0FB6F894D6
:103CE000DEBF0FBECDBFDF91CF911F910F91FF902F
:103CF000EF90DF90CF90BF90AF909F908F907F908C
:103D00006F905F904F9008951F93CF93DF93182F7C
:103D1000EB0161E00E94D20F209711F460E004C033
:103D2000CF3FD10539F461E0812FDF91CF911F9111
:103D30000C94550FE12FF0E0EA5DFD4FE4914E2F1A
:103D400050E0FA013197E231F10508F09DC0882773
:103D5000EE56FF4F8F4F0C945E3184B5806884BD62
:103D6000C7BD97C084B5806284BDC8BD92C0809134
:103D70008000806880938000D0938900C093880081
:103D800088C080918000806280938000D0938B00F7
:103D9000C0938A007EC080918000886080938000FC
:103DA000D0938D00C0938C0074C08091B000806867
:103DB0008093B000C093B3006CC08091B00080626B
:103DC0008093B000C093B40064C08091900080687C
:103DD00080939000D0939900C09398005AC080912E
:103DE0009000806280939000D0939B00C0939A00D3
:103DF00050C080919000886080939000D0939D0087
:103E0000C0939C0046C08091A00080688093A00071
:103E10008091A0008F7B8093A000D093A900C093D5
:103E2000A80037C08091A00080628093A000D0934A
:103E3000AB00C093AA002DC08091A0008860809341
:103E4000A000D093AD00C093AC0023C080912001AE
:103E5000806880932001D0932901C093280119C064
:103E600080912001806280932001D0932B01C09328
:103E70002A010FC080912001886080932001D09397
:103E80002D01C0932C0105C0C038D1050CF04BCFDB
:103E900045CFDF91CF911F9108958F929F92AF925E
:103EA000BF92CF92DF92EF92FF926B017C014ADCCE
:103EB0004B015C01C114D104E104F104E9F042DCDE
:103EC000DC01CB0188199909AA09BB09883E9340F6
:103ED000A105B10578F321E0C21AD108E108F10883
:103EE00088EE880E83E0981EA11CB11CC114D10479
:103EF000E104F10421F7DECFFF90EF90DF90CF9047
:103F0000BF90AF909F908F9008952FB7F8946091D5
:103F100053077091540780915507909156072FBF12
:103F200008951F920F920FB60F9211242F933F9373
:103F30008F939F93AF93BF938091530790915407B2
:103F4000A0915507B09156073091520723E0230FF7
:103F50002D3720F40196A11DB11D05C026E8230FC1
:103F60000296A11DB11D2093520780935307909391
:103F70005407A0935507B093560780915707909127
:103F80005807A0915907B0915A070196A11DB11D7C
:103F90008093570790935807A0935907B0935A07F7
:103FA000BF91AF919F918F913F912F910F900FBE35
:103FB0000F901F9018951F920F920FB60F92112419
:103FC0000BB60F922F933F934F935F936F937F9313
:103FD0008F939F93AF93BF93EF93FF93E0910F0263
:103FE000F09110021995FF91EF91BF91AF919F91C0
:103FF0008F917F916F915F914F913F912F910F9092
:104000000BBE0F900FBE0F901F9018951F920F922E
:104010000FB60F9211240BB60F922F933F934F932D
:104020005F936F937F938F939F93AF93BF93EF9320
:10403000FF93E0910D02F0910E021995FF91EF911F
:10404000BF91AF919F918F917F916F915F914F91B0
:104050003F912F910F900BBE0F900FBE0F901F90AE
:1040600018951F920F920FB60F9211240BB60F9254
:104070002F933F934F935F936F937F938F939F9370
:10408000AF93BF93EF93FF93E0910302F09104028B
:104090001995FF91EF91BF91AF919F918F917F9172
:1040A0006F915F914F913F912F910F900BBE0F90A9
:1040B0000FBE0F901F9018951F920F920FB60F9280
:1040C00011240BB60F922F933F934F935F936F93EF
:1040D0007F938F939F93AF93BF93EF93FF93E09161
:1040E0000102F09102021995FF91EF91BF91AF91FA
:1040F0009F918F917F916F915F914F913F912F9100
:104100000F900BBE0F900FBE0F901F9018951F922F
:104110000F920FB60F9211240BB60F922F933F936D
:104120004F935F936F937F938F939F93AF93BF93BF
:10413000EF93FF93E0910B02F0910C021995FF9120
:10414000EF91BF91AF919F918F917F916F915F910F
:104150004F913F912F910F900BBE0F900FBE0F907C
:104160001F9018951F920F920FB60F9211240BB645
:104170000F922F933F934F935F936F937F938F9300
:104180009F93AF93BF93EF93FF93E0910902F09158
:104190000A021995FF91EF91BF91AF919F918F9175
:1041A0007F916F915F914F913F912F910F900BBE37
:1041B0000F900FBE0F901F9018951F920F920FB681
:1041C0000F9211240BB60F922F933F934F935F934F
:1041D0006F937F938F939F93AF93BF93EF93FF93CF
:1041E000E0910702F09108021995FF91EF91BF91BC
:1041F000AF919F918F917F916F915F914F913F917F
:104200002F910F900BBE0F900FBE0F901F9018951F
:104210001F920F920FB60F9211240BB60F922F938D
:104220003F934F935F936F937F938F939F93AF933E
:10423000BF93EF93FF93E0910502F0910602199569
:10424000FF91EF91BF91AF919F918F917F916F916E
:104250005F914F913F912F910F900BBE0F900FBE2A
:104260000F901F901895AF92BF92CF92DF92EF926E
:10427000FF920F931F93CF93DF9300D01F92CDB780
:10428000DEB787FD3BC0A82E082E000CBB089BE0C4
:104290008902F0011124E35DFC4F9085913071F5A6
:1042A0008983848195819C838B83108615821482F7
:1042B000818580FF02C06EE401C069E4C12CD12C6D
:1042C000E12CF12C00E010E024E030E0AE014F5F83
:1042D0005F4F82E00E948E0C811187EF9BE09A9DD8
:1042E000F0019B9DF00D1124E35DFC4F9F01255FC4
:1042F0003F4F1192E217F307E1F701C08AEF0F90E9
:104300000F900F900F90DF91CF911F910F91FF9021
:10431000EF90DF90CF90BF90AF9008954F925F9253
:104320006F927F928F929F92AF92BF92CF92DF92C5
:10433000EF92FF920F931F93CF93DF9300D01F92C2
:10434000CDB7DEB7F82E8A01653071F038F46130F0
:1043500009F4B3C1643009F404C236C2663031F1E5
:10436000693009F4AAC030C241155105E9F0DA01FB
:1043700011968C9187FD18C0BF2DE8E0BE02800128
:10438000112408521C4FD8016D917C918F2D0E94F1
:104390006A2CD8011296ED91FC911397808191813E
:1043A000A281B38181600CC28F2DF2C160E085E0F3
:1043B0000E943B0C60E082E00E943B0CEF2D0F2C32
:1043C000000CFF0BB3E0EE0FFF1FBA95E1F70115EC
:1043D000110509F459C0D80112968D919C9113973B
:1043E000181619060CF050C09F0128523C4F590175
:1043F000D90114962D913C9115972C01990F6608BF
:104400007708F9014081518162817381D301C20132
:10441000840F951FA61FB71F81349105A105B10513
:1044200058F0D5011296ED91FC91139780819181FE
:10443000A281B3818260C4C1F90180839183A28388
:10444000B38340E450E060E070E0481B590B6A0B16
:104450007B0B403151056105710568F4D801149654
:104460008D919C911597892BF9F0D5011296ED91BC
:10447000FC91139706C1F50160817181680F791F66
:104480008F2D0E946A2C10C0E852FC4F0280F381ED
:10449000E02D80819181A281B3818E7F8083918381
:1044A000A283B3838F2DDFDE61E085E00E943B0CA9
:1044B00061E082E00E943B0C87C160E085E00E94E1
:1044C0003B0C60E082E00E943B0C0115110561F39A
:1044D000D80112966D917C9113971616170624F742
:1044E0008091D7034F2D0F2C000C550BFA01A3E040
:1044F000EE0FFF1FAA95E1F7823008F084C09F01FC
:1045000028523C4F3901F901A481B5818D919D91CB
:104510000D90BC91A02D20813181F801A480B5803F
:104520006A0D7B1D5901A80EB91EF50170834C015F
:104530005D01FFEF8F1A9F0AAF0ABF0A820E931E1A
:10454000F40160834C015D01F2E08F0E911CA11C0F
:10455000B11C820E931EF8016085F40160834C014A
:104560005D01F3E08F0E911CA11CB11C820E931E05
:10457000F8016185F40160834C015D01F4E08F0E68
:10458000911CA11CB11C820E931EF8016585F401DB
:1045900060834C015D01F5E08F0E911CA11CB11CE4
:1045A000820E931EF8016485F40160834C015D0165
:1045B000F6E08F0E911CA11CB11C820E931EF80117
:1045C0006385F40160834C015D01F7E08F0E911C5F
:1045D000A11CB11C820E931EF8012285F4012083D8
:1045E000F30124813581F80182809380092C000C2D
:1045F000AA08BB08880D991DAA1DBB1D0896A11D00
:10460000B11DF90111C0E852FC4F0480F581E02D85
:10461000CB01770FAA0BBB0B80809180A280B38067
:10462000880D991DAA1DBB1D80839183A283B3832E
:1046300063E0440F551F6A95E1F7FA01E852FC4F19
:10464000A481B5818D919D910D90BC91A02D78E4B0
:10465000872E912CA12CB12C881A990AAA0ABB0A80
:1046600028E182169104A104B104A8F4D80114969B
:104670008D919C911597892B09F416CF0280F381B7
:10468000E02D80819181A281B381826080839183BA
:10469000A283B38309CF2091D703222311F02330C3
:1046A00021F4FA01E852FC4F089660817181680F8D
:1046B000791F8F2D0E940B2CF7CE4115510509F45F
:1046C00083C0FA01808181117FC02F2D0F2C000C37
:1046D000330BF90143E0EE0FFF1F4A95E1F7BF01ED
:1046E00068527C4FDB0112964D915C911397FA0151
:1046F00080819181A281B381846080839183A28330
:10470000B383F6E0FF1524F1F7FC5EC08BE0829FD7
:10471000F001839FF00D1124E35DFC4F8085813013
:1047200009F052C0F9821A82848195819C838B831F
:10473000C12CD12CE12CF12C00E010E024E030E081
:10474000AE014F5F5F4F62E482E00E948E0C3CC07E
:10475000DB016D917C91685F7F4F8F2D0E940B2C48
:1047600033C04115510581F1FA01208127FD2CC08C
:1047700068E08602F0011124E852FC4F0280F381C8
:10478000E02D80819181A281B38183FF03C0822FBC
:104790006ADD1AC0AC01BD01662740835183628384
:1047A0007383D8018C91082E000C990BAA0BBB0BBC
:1047B000DC0199278827842B952BA62BB72B8860A3
:1047C00080839183A283B3830F900F900F900F90FB
:1047D000DF91CF911F910F91FF90EF90DF90CF90DD
:1047E000BF90AF909F908F907F906F905F904F9011
:1047F0000895AB01BC0180E090E00C9453087F92D7
:104800008F929F92AF92BF92CF92DF92EF92FF92E0
:104810000F931F93CF93DF9300D0CDB7DEB74C013A
:104820008B01742EA12CB12C013080E2180710F4FA
:10483000680103C0C12C90E2D92E8AE0E82EF12C49
:1048400061E070E0CE010396D4DF882311F080E0B0
:1048500028C09B8192959F709F3029F081E0E81AD3
:10486000F10870F7F4CFEF2891F3B601C4018A0D77
:104870009B1DBFDF8111EBCF772039F0AC0CBD1C45
:104880000C191D0989F681E00CC080913F07811148
:10489000F5CF62E070E0CE010196ABDF882371F3C3
:1048A000D6CF0F900F900F90DF91CF911F910F9166
:1048B000FF90EF90DF90CF90BF90AF909F908F9040
:1048C0007F900895AB0160E070E00C9453080F9363
:1048D0001F93CF93DF931F92CDB7DEB7082F8F3C86
:1048E00031F08BE3800F823010F01BE00EC061E0EE
:1048F00070E0CE0101967DDF8823B9F380E01BC014
:104900008981801751F0115041F061E070E0CE01D3
:1049100001966FDF8823A1F3F1CF1BE061E070E027
:10492000CE01019666DF8111E9CF8981882311F0DC
:104930001150A1F781E00F90DF91CF911F910F915E
:104940000895AF92CF92DF92EF92FF920F931F9351
:10495000CF93DF93CDB7DEB729970FB6F894DEBFBC
:104960000FBECDBF898390E0FC01E15CF109EF301F
:10497000F10508F051C08827EC55FF4F8F4F0C947C
:104980005E316A835B834C8311C0BB27A72F962FB0
:10499000852FA11080688A834B831C8207C01A82EE
:1049A0001B82FBCF8FEF8A838B838C8365E036C0BD
:1049B0006A835B834C83DD82CE8267E02FC06A838B
:1049C0005B834C83ED82DE82CF820CC0BB27A72F96
:1049D000962F852FA11080688A834B833C832D837B
:1049E0001E830F8368E01AC06A835B834C833D8318
:1049F0002E831F83088769E011C0A1E0B0E0AC0FEF
:104A0000BD1FA80FB91FEE0FEC9370E0CE01019609
:104A100059DF91E0882309F190E01FC080913F07A2
:104A2000811119C0862F90E001978C01092E000C8E
:104A3000220B330BDE011196EFE70150110921091A
:104A40003109D8F24D91F0E0EE0FFF1FE427EA574D
:104A5000FD4FE491F2CF6150D8CF892F29960FB640
:104A6000F894DEBF0FBECDBFDF91CF911F910F91A4
:104A7000FF90EF90DF90CF90AF9008952F923F92EC
:104A80004F925F926F927F928F929F92AF92BF925E
:104A9000CF92DF92EF92FF920F931F93CF93DF930A
:104AA00000D01F92CDB7DEB71B012C013A0149019E
:104AB0008AE08B831C82E1E08E16910429F4F1E0F8
:104AC000FC8382E0882E912C6401E12CF12CA12C36
:104AD00000E010E09801B201A10188EC32DFB82EAD
:104AE00081E0B81219C088ECF2DEB82EE1E08E1336
:104AF00013C0FC8140E0B401FF2341F0CE010196D8
:104B00007EDEB82E8981F301808303C0C30177DE86
:104B1000B82EF1E0BF16F9F061E070E080E090E0BF
:104B20000E94760BA12CC12CD12C760100E010E064
:104B3000980140E050E0BA018FEC03DF8FECC7DE54
:104B400061E070E080E090E00E94760B8B81815004
:104B50008B838111B0CF8B2D0F900F900F900F9002
:104B6000DF91CF911F910F91FF90EF90DF90CF9049
:104B7000BF90AF909F908F907F906F905F904F907D
:104B80003F902F9008952F923F924F925F926F9295
:104B90007F928F929F92AF92BF92CF92DF92EF92CD
:104BA000FF920F931F93CF93DF9300D01F921F921A
:104BB000CDB7DEB71B012C014A013AE0732E8FEF0F
:104BC000281631044104510421F018F0612C9AECAC
:104BD00003C06624639494ECA62C24E0C22ED12C4E
:104BE000E12CF12C00E010E09801B201A101892F25
:104BF0009D83A7DEB82E9D81E1E08E1323C0892F0F
:104C000066DEB82EF1E08F131DC0462D64E070E023
:104C1000CE010196F4DDB82E81E0B81213C08A816E
:104C20004B8150E060E070E0BA0155274427582BD3
:104C30008981482B8C81782BF401408351836283D6
:104C400073831DC061E070E080E090E00E94760B0D
:104C5000A12CC12CD12C760100E010E0980140E09D
:104C600050E0BA018FEC6DDE8FEC31DE61E070E078
:104C700080E090E00E94760B7A947110A0CF8B2D8B
:104C80000F900F900F900F900F90DF91CF911F9189
:104C90000F91FF90EF90DF90CF90BF90AF909F90DB
:104CA0008F907F906F905F904F903F902F900895DE
:104CB0006ADF813011F08AEF089580E008952F9225
:104CC0003F924F925F926F927F928F929F92AF929C
:104CD000BF92CF92DF92EF92FF920F931F93CF93E9
:104CE000DF9300D01F921F92CDB7DEB71B012C01BE
:104CF0003A0149018AE08D8381E08816910419F414
:104D000082E0882E912C6401E12CF12CA12C00E092
:104D100010E09801B201A10187EC13DEB82E81E00A
:104D2000B81269C087ECD3DDB82E81E0B81263C039
:104D30001A8219827401A12CB12C870181E0E81636
:104D400080E2F80610F000E010E2A114B10431F4A2
:104D500081E0E81680E2F80640F405C081E0E8163C
:104D600080E2F80620F483E003C081E001C082E025
:104D7000806F8C8361E070E0CE010496A3DD811129
:104D800039C0B801C3018A0D9B1D9CDD811132C061
:104D900080913F07882331F0A00EB11EE01AF10A7E
:104DA00061F608C062E070E0CE0101968BDD8823D9
:104DB00099F320C080913F07882311F083E001C060
:104DC00082E0A82EB12CB501CE01019612DD811131
:104DD00011C0FE01EA0DFB1D808181110BC0EFEFB8
:104DE000FFEFEC0FFD1FEA0DFB1DBB24B394808188
:104DF000833C01F1B12C61E070E080E090E00E9422
:104E0000760BA12CC12CD12C760100E010E098018A
:104E100040E050E0BA018FEC94DD8FEC58DD61E0AA
:104E200070E080E090E00E94760B8D8181508D8350
:104E3000811162CF8B2D0F900F900F900F900F90DC
:104E4000DF91CF911F910F91FF90EF90DF90CF9066
:104E5000BF90AF909F908F907F906F905F904F909A
:104E60003F902F9008954F925F926F927F929F9202
:104E7000AF92BF92CF92DF92EF92FF920F931F9368
:104E8000CF93DF9300D01F921F92CDB7DEB72B01D7
:104E90003C0129833A834B835C839AE0B92E81E3FA
:104EA000481651046104710418F0A12C99EC03C058
:104EB000AA24A39493EC84E0C82ED12CE12CF12CED
:104EC00009811A812B813C81B301A201892F9D8325
:104ED00038DD982E9D8181E0981206C0892FF7DC7D
:104EE000982E81E09816E9F061E070E080E090E0B3
:104EF0000E94760BA12CC12CD12C760100E010E091
:104F0000980140E050E0BA018FEC1BDD8FECDFDC54
:104F100061E070E080E090E00E94760BBA94B110FE
:104F2000BECF892D0F900F900F900F900F90DF91B3
:104F3000CF911F910F91FF90EF90DF90CF90BF9096
:104F4000AF909F907F906F905F904F9008958BDF10
:104F5000813011F08AEF089580E008954F925F92BA
:104F60006F927F928F929F92AF92BF92CF92DF9279
:104F7000EF92FF920F931F93CF93DF932B013C018E
:104F8000EA0148015901C12CD12C7601C701B601B3
:104F9000640D751D861D971DAE014C0D5D1D29EF1D
:104FA00082169104A104B10430F4940188DE8130AA
:104FB00091F480E011C028EF30E081DE813059F4B7
:104FC00088EF881A9108A108B10828EFC20ED11CF9
:104FD000E11CF11CDBCF8AEFDF91CF911F910F9184
:104FE000FF90EF90DF90CF90BF90AF909F908F9009
:104FF0007F906F905F904F9008954F925F926F9265
:105000007F928F929F92AF92BF92CF92DF92EF9258
:10501000FF920F931F93CF93DF932B013C01EA0183
:1050200048015901C12CD12C7601C701B601640D8C
:10503000751D861D971DAE014C0D5D1D29EF821655
:105040009104A104B10430F4940118DD813091F48D
:1050500080E011C028EF30E011DD813059F488EF95
:10506000881A9108A108B10828EFC20ED11CE11CD2
:10507000F11CDBCF8AEFDF91CF911F910F91FF9051
:10508000EF90DF90CF90BF90AF909F908F907F90E8
:105090006F905F904F9008955ACFCF92DF92EF922A
:1050A000FF92CF93DF9300D01F92CDB7DEB7C090B1
:1050B0005B07D0905C07E0905D07F0905E07C1143D
:1050C000D104E104F10409F07EC04BE557E060E053
:1050D00070E180E090E0ECDD882349F010925B07FE
:1050E00010925C0710925D0710925E0774C0AE01CB
:1050F0004F5F5F4F64EF73E180E090E0D9DD811195
:10510000EDCF80915B0790915C07A0915D07B09116
:105110005E07803A22E0920720E1A207B10569F418
:1051200089819A81AB81BC810197A105B105C9F143
:1051300081EA92E0A0E1B0E01DC0803B22E092074E
:1051400020E1A207B105F9F489819A81AB81BC8184
:1051500083309105A105B10521F10497A105B105A1
:1051600029F481EB92E0A0E1B0E004C082EB92E090
:10517000A0E1B0E080935B0790935C07A0935D078C
:10518000B0935E070EC0803F9105A041B10549F480
:105190004BE557E060E070E08BE390E089DD811142
:1051A0009DCF80915B0790915C07A0915D07B091C6
:1051B0005E07A07FA56080935B0790935C07A09338
:1051C0005D07B0935E07C0905B07D0905C07E090EE
:1051D0005D07F0905E07C701B6010F900F900F902A
:1051E0000F90DF91CF91FF90EF90DF90CF900895D7
:1051F000CF92DF92EF92FF92CF93DF9300D01F9276
:10520000CDB7DEB76B017C016894D0F8A701960199
:1052100060EA74E180E090E03FDF19821A821B822D
:105220001C82AE014F5F5F4F60EA74E180E090E066
:105230003FDD8111EBCF89819A81AB81BC818C15D7
:105240009D05AE05BF0511F780E00F900F900F9000
:105250000F90DF91CF91FF90EF90DF90CF90089566
:10526000CF92DF92EF92FF920F931F93CF93DF9332
:10527000CDB7DEB762970FB6F894DEBF0FBECDBFD5
:105280007C010E94920B182F811160C0CE01019603
:105290006C0188E0F60111928A95E9F7AE01415F51
:1052A0005F4F68E070E08CE090E002DD182F811124
:1052B00048C08F859889A989BA890097A105B10549
:1052C000A9F0BC01CD01836008E010E020E030E0EF
:1052D000A60193DE182F811134C089819A81AB8198
:1052E000BC818F87988BA98BBA8B0BC0AE01415FB5
:1052F0005F4F6CE974E180E090E0DADC182F8111F7
:1053000020C08F859889A989BA89AA27BB278F874A
:10531000988BA98BBA8BBC01CD01836006E010E0AD
:1053200020E030E0AE01475F5F4F67DE182F26E0D8
:1053300030E040E050E0BE01675F7F4FC7010E9450
:105340003F08111103C00E94D007182F812F6296C9
:105350000FB6F894DEBF0FBECDBFDF91CF911F9186
:105360000F91FF90EF90DF90CF900895FC01918D09
:10537000828D981761F0828DDF01A80FB11D5D96B7
:105380008C91928D9F5F9F73928F90E008958FEF25
:105390009FEF0895FC01918D828D981731F0828DD9
:1053A000E80FF11D858D90E008958FEF9FEF089530
:1053B000FC01918D228D892F90E0805C9F4F821B94
:1053C00091098F739927089580E090E0892B21F04F
:1053D0000E94EB0E811125C080E090E0892B41F006
:1053E00080E090E0892B21F00E94000081111CC018
:1053F00080E090E0892B41F080E090E0892B21F063
:105400000E940000811113C080E090E0892BA1F080
:1054100080E090E0892B81F00E94000081110AC099
:1054200008950E940000D8CF0E940000E1CF0E94A2
:105430000000EACF0C94000008958F929F92AF92E3
:10544000BF92CF92DF92EF92FF920F931F93CF9371
:10545000DF93CDB7DEB7C756D1400FB6F894DEBFA5
:105460000FBECDBF80913E0590913F05892B11F471
:105470000E940E108091E0049091E104892BC1F00C
:105480001092D4041092D5041092D6041092D7042E
:105490001092D8041092D9041092DA041092DB040E
:1054A0001092DC041092DD041092DE041092DF04EE
:1054B000C12CD12CE12CF12C00E010E020E030E0F8
:1054C00040E050E069E281E00E948E0C87FF07C057
:1054D00084E090E09093EB048093EA043FC0109244
:1054E000EB041092EA0481E090E09093E904809349
:1054F000E8040E94851F4B015C018091EA049091B1
:10550000EB0487709927892B81F40E94851FDC01A9
:10551000CB0188199909AA09BB0980369A4EA105C1
:10552000B10518F40E941403E8CF81E2EFE0F5E042
:10553000DF011D928A95E9F78091EA049091EB04CE
:1055400083709927892B09F052C11092E9041092B7
:10555000E8048091EA04833009F429C1CE018E5910
:105560009E4F7EDECE0101967BDE8E81CE59DE4FD0
:105570008883C256D1409D81CD59DE4F9883C35652
:10558000D1409C81CC59DE4F9883C456D1409B8139
:10559000CB59DE4F9883C556D1409A81CA59DE4F08
:1055A0009883C656D1409981C959DE4F9883C75612
:1055B000D1401F928F93CD59DE4F8881C356D14081
:1055C0001F928F938DE093E09F938F935E018BEA00
:1055D000A81A8EEFB80ABF92AF9229D70FB6F894E7
:1055E000DEBF0FBECDBF80913E0590913F05892B58
:1055F00011F40E940E108E0103531F4F88E8F8012A
:1056000011928A95E9F7B501C8010AD7FF24F394EE
:10561000D8019196FC929197DF96FC92C35FDE4F82
:105620001882CD50D14080ECC25FDE4F8883CE50CF
:10563000D14088EAC15FDE4F8883CF50D140C05F40
:10564000DE4FF882C051D140CF5EDE4FF882C151AB
:10565000D140C8010E944A080197809778F428E851
:1056600030E040E050E0B801CE0101960E943F08D2
:105670008DE193E00E944A08892B39F48BE090E099
:105680009093EB048093EA0492C020E430E040E081
:1056900050E06DE173E0CE0187579F4F0E943F08B5
:1056A000C753DF4FF882C95CD04010924007809109
:1056B000450790914607A0914707B091480780356C
:1056C0009341A105B10508F0A3C08AA181508AA326
:1056D00020E430E040E050E06DE173E0CE01875B14
:1056E0009F4F0E943F08C757DF4FF882C958D040EC
:1056F0002AE830E0C12CD12CE12CF12C00E010E0A4
:10570000AE014F5F5F4F68E881E00E948E0C87FD1D
:10571000B5CF8AE090E09093EB048093EA0482E0B6
:1057200090E09093E9048093E80481E2EFE0F5E0F3
:10573000DF011D928A95E9F7F50101900020E9F754
:105740003197AF014A195B09B5018FE095E05FD64B
:1057500024E030E040E050E0BE01625F7E4F84ED27
:1057600094E00E943F088FEF9FEFAFEFB0E080938F
:10577000D8049093D904A093DA04B093DB04809109
:10578000D4049091D504A091D604B091D70480930D
:10579000DC049093DD04A093DE04B093DF0460E0AA
:1057A00084E00E943B0C60E081E00E943B0C809111
:1057B0003E0590913F05892B11F40E940E100E9426
:1057C00014038091EA04C959DE4F0FB6F894DEBF86
:1057D0000FBECDBFDF91CF911F910F91FF90EF9042
:1057E000DF90CF90BF90AF909F908F900895C12C85
:1057F000D12CE12CF12C00E010E020E030E040E082
:1058000050E065E081E00E948E0C0E941403A1CE5E
:105810002CEC30E06FCFCF92DF92EF92FF920F939C
:105820001F93CF93DF93CDB7DEB728970FB6F894C9
:10583000DEBF0FBECDBF87FD3CC061157105C9F14C
:105840009BE08902F0011124E35DFC4F90859130CB
:1058500081F52085222339F17183608320E130E0D6
:1058600033832283228521111EC092874FEF5FEF81
:10587000BA0149835A836B837C838D8384819581AC
:1058800098878F83C12CD12CE12CF12C00E010E003
:1058900028E030E0AE014F5F5F4F68E482E00E9495
:1058A0008E0C811103C080E090E005C082EF9FEF75
:1058B00002C08AEF9FEF28960FB6F894DEBF0FBEA6
:1058C000CDBFDF91CF911F910F91FF90EF90DF90AF
:1058D000CF900895CF92DF92EF92FF920F931F9394
:1058E000CF93DF93CDB7DEB728970FB6F894DEBF1E
:1058F0000FBECDBF87FD49C06115710509F445C0D4
:10590000282F082E000C330B9BE08902F001112494
:10591000E35DFC4F90859130C1F57183608340E178
:1059200050E0538342834285411132C09287918572
:1059300090FF02C06DE401C066E4CC24CA94DC2C64
:105940007601C982DA82EB82FC828D838BE0829FB2
:10595000F001839FF00D1124E35DFC4F848195815C
:1059600098878F83C12CD12CE12CF12C00E010E022
:1059700028E030E0AE014F5F5F4F82E00E948E0C66
:10598000882331F082EF9FEF05C08AEF9FEF02C0BE
:1059900080E090E028960FB6F894DEBF0FBECDBF32
:1059A000DF91CF911F910F91FF90EF90DF90CF90FB
:1059B0000895FC01848DDF01A80FB11DA35ABF4FCC
:1059C0002C91848D90E001968F739927848FA689FE
:1059D000B7892C93A089B1898C9180648C93938D25
:1059E000848D981306C00288F389E02D80818F7D15
:1059F00080830895EF92FF920F931F93CF93DF93CD
:105A0000EC0181E0888F9B8D8C8D981305C0E8890F
:105A1000F989808185FD23C0F62E0B8D10E00F5F84
:105A20001F4F0F731127E02E8C8DE8120BC00FB69D
:105A300007FCFACFE889F989808185FFF5CFCE018F
:105A4000B8DFF2CF8B8DFE01E80FF11DE35AFF4F57
:105A5000F0820B8FEA89FB898081806207C0EE8922
:105A6000FF896083E889F98980818064808381E08F
:105A700090E0DF91CF911F910F91FF90EF900895EB
:105A8000CF93DF93EC01888D8823C1F0EA89FB89ED
:105A9000808185FD05C0A889B9898C9186FD0EC0DD
:105AA0000FB607FCF5CF808185FFF2CFA889B989B1
:105AB0008C9185FFEDCFCE017CDFE8CFDF91CF91D8
:105AC0000895E4E0F6E08CE692E091838083128210
:105AD000138214821582E5E3F4E01382128248EE09
